:100000000C945C030C9479030C9479030C9479039D
:100010000C9479030C9479030C9479030C94790370
:100020000C9479030C9479030C94A7160C94E315A3
:100030000C940C1A0C9479030C9479030C947903A6
:100040000C9479030C9479030C9479030C94790340
:100050000C9479030C949A190C9479030C947903F9
:100060000C9479030C9479030C9479030C94790320
:100070000C9479030C9479030C9479030C94790310
:100080000C9479030C9479030C9479030C94790300
:100090000C9479030C9479030C9479030C947903F0
:1000A0000C9479030C9479030C9479035506550646
:1000B00093069306DC06FC06D00829093E072A08A9
:1000C0003C083C08DC0BDF0BE20BE50BE80BEB0B11
:1000D000EE0B89108E1098108C10911096109410C1
:1000E000F4131B14BB151B14BB1563148614BB152A
:1000F00084159715FC1CFC1C0F1D0F1D051D0F1DE5
:100100000F1D0F1DFC1CFC1C0A1D0F1D0F1D0A1DC1
:1001100029002B003900E100354100001E001400C9
:1001200004001D6134002F001F001A0016621B001E
:10013000E1040351200008000764060050002C6809
:100140002100150009681900E0004C00220017008A
:100150000A0005000000290050003502000011507F
:100160000000AA004F005600000001530000A90043
:1001700023001C000B0011000000A8002400180040
:100180000D78100052004B0025000C000E74360054
:1001900051002A00260012000F7237002F0028009D
:1001A0002700130033423871300030002A0031003C
:1001B0003400E500025100002900010001000100A7
:1001C000010000003A001E02200222020100260265
:1001D0003B001F02500023020100AA003C00520015
:1001E00051002F0001000100210230024F003000B9
:1001F000010001003E003102350035020000A90077
:10020000AC0001000000125000002F00AB00010004
:1002100000000100000030003F00520051002402A5
:10022000000001004000240021001E000100010028
:100230004100250022001F003700AE0042002600CA
:100240002300200027000100430025022E02310078
:100250002E002702440045000100010001000000BB
:100260000100010001000100010000000100010087
:10027000010001000100010001000100F200010085
:10028000010001000100F000F1000100F400010094
:1002900001000100F3000100F50001000100010070
:1002A00001000100000001000100010000001350E6
:1002B00000000100010001000000105000000100DA
:1002C0000100010001000100000001000100010027
:1002D00001000100A9000100010001000100AC00C3
:1002E000AA00B600010001000100AB00A800010057
:1002F00001000100010001000100010001000100F6
:10030000AE0001000100000035022B0801000100D1
:10031000010000001E08140804081D080100010067
:100320001F081A0816081B080100010020082E00EB
:100330000100060801000100210801000100190860
:10034000010001002208170801000100000001005F
:1003500001000100000001000000010001002D0269
:1003600000001050000001002308010001000100FE
:10037000000001002408010001000100010001004B
:100380002D00570001000100010001002D020100B5
:100390000100010001000100010001000100010055
:1003A0000100010001000100010001000100000046
:1003B000000000000000000000000000000000003D
:1003C000000000000000000000000000000000002D
:1003D000000000000000000000000000000000001D
:1003E000000000000000000000000000000000000D
:1003F00000000000000000000000000000000000FD
:1004000000000000000000000000000000000000EC
:1004100000000000000000000000000000000000DC
:1004200000000000000000000000000000000000CC
:1004300000000000000000000000000000000000BC
:1004400000000000000000000000000000000000AC
:100450000001010101010100010101010000000092
:100460000000000000000000000001000100010188
:10047000010101010101010101010101010101016C
:10048000010101010101010101010100000001015F
:10049000000000000000000000000000000000005C
:1004A0000000000000000000000000010101010048
:1004B00000000000000000002A2B280000000000BF
:1004C0000000000000000000000000290000000003
:1004D0002C1E3420212224342627252E362D373871
:1004E000271E1F202122232425263333362E37387A
:1004F0001F0405060708090A0B0C0D0E0F10111238
:10050000131415161718191A1B1C1D2F3130232D03
:10051000350405060708090A0B0C0D0E0F10111201
:10052000131415161718191A1B1C1D2F3130354CB2
:1005300005010902A10185020901A10005091901AE
:1005400029051500250195057501810295017503A1
:1005500081010501093009311581257F9502750852
:10056000810609381581257F950175088106050CDE
:100570000A38021581257F950175088106C0C005DE
:10058000010980A10185031A81002A830016010058
:10059000260300950175108100C0050C0901A10119
:1005A00085041A01002A9C02160100269C0295016E
:1005B00075108100C005010906A10185050507190F
:1005C000E029E71500250195087501810205071945
:1005D0000029EF1500250195F07501810205081924
:1005E000012905950575019102950175039101C0D9
:1005F00005010906A101050719E029E715002501F4
:10060000950875018102950175088101050719009A
:1006100029FF150026FF00950675088100050819B9
:10062000012905950575019102950175039101C098
:1006300009023B00020100A0FA09040000010301C5
:100640000100092111010001224000070581030872
:10065000000A090401000103000000092111010042
:100660000122C0000705820320000A1201100100C8
:10067000000008EDFE07130100010203010403302E
:1006800000000016034500720067006F0044006F11
:10069000007800200045005A000000160345007253
:1006A0000067006F0044006F007800200045005A8A
:1006B000000000040309040011241FBECFEFDAE09C
:1006C000DEBFCDBF11E0A0E0B1E0EAE5F2E502C097
:1006D00005900D92A43CB107D9F723E0A4ECB1E05A
:1006E00001C01D92A030B207E1F70E94A9210C942D
:1006F0002B290C9400008F929F92AF92BF92CF92C1
:10070000DF92EF92FF920F931F93CF93DF93CDB7BA
:10071000DEB760970FB6F894DEBF0FBECDBFFC0109
:10072000F080118183819481892B09F43CC71F3F9C
:1007300021F40FEFF01609F436C76F0185E0DE01F2
:10074000199601900D928A95E1F7F601228189852B
:100750009A85222349F00E94691B082F682F8985FA
:100760009A850E94E21B03C00E94B51B082F26E059
:10077000129FF001112434E5039FE00DF11D1124B7
:10078000EF0DF11DEE0FFF1FE05FFE4F059114917D
:100790000E3F8CE5180709F040C0F60182818823DE
:1007A000E1F19091BD0281E0890F8770987F8530DB
:1007B00020F4892B8093BD0202C09093BD028091EA
:1007C000BD028770FFEF8F9FC0011124959587951B
:1007D00095958795992790938900809388009093A9
:1007E0008B0080938A0090938D0080938C004091C1
:1007F000BD025091BE026091BF027091C0028FE0B5
:1008000090E00E94C9246091A4027091A502809199
:10081000A6029091A7020E942A10F60182818823E5
:1008200019F1033EFCE51F07C1F050F4013E3CE521
:10083000130781F0023E8CE51807B1F481E010C087
:10084000043E9CE5190759F0053EECE51E0761F4EE
:1008500084E006C01092B90205C082E001C083E0C6
:100860008093B9020E944F0D17FF6DC0F60182817F
:10087000882309F468C08091E6018093C401109236
:10088000E6018091B902813071F048F08230A1F028
:100890008430C1F486EE0E94A12088E111C082EE6E
:1008A0000E94871F0FC088E193E00E94E40F88E157
:1008B00093E00E94CE0F06C082EE0E94871F87E55C
:1008C0000E94A1208FE39CE90197F1F700C000008E
:1008D0007801E894F7F85CE0A52EB12CC7010A2C4A
:1008E00002C0969587950A94E2F7282F2F7041F061
:1008F000822F90E02A3010F44D9604C0069702C073
:1009000087E290E00E94A12094E0A91AB108ECEFE0
:10091000AE16EFEFBE0611F78091B902813039F0C3
:1009200040F0823031F0843051F488E206C08CE22D
:1009300004C082EE0E94201F02C00E94A12080916C
:10094000C4018093E601F6018281882309F4D3C0B3
:100950000436110509F4B6C090F40B32110509F400
:10096000B1C0C8010C32110528F40497849708F02F
:10097000C2C0A8C08D970C9708F0BDC0A3C00931B4
:10098000FCE51F0739F178F407313CE51307C1F0A6
:1009900008318CE5180709F0AEC0809107019091ED
:1009A0000801059712C00B319CE5190709F481C0B5
:1009B00008F47BC00C31FCE51F0709F47EC09BC026
:1009C000809107019091080105969093080180930A
:1009D000070194C0809108018F93809107018F9344
:1009E00086E191E09F938F931F9288E08F939E0101
:1009F0002F5F3F4F79013F932F930E9446260FB6FA
:100A0000F894DEBF0FBECDBFF7012081222309F489
:100A100075C0C70101965C01213031F4F1808F2D42
:100A20000E94871F8F2D0CC0223031F4F701818185
:100A30000E94871F750135C0233029F4F701818199
:100A40000E94201FF7CF30E0F901E055FB4F949052
:100A5000F901E05DFB4FE491BB24B394E11101C0C7
:100A6000B12CF901E055FC4F2491AA24A394211143
:100A700001C0A12CBB2019F081EE0E94871FAA2083
:100A800019F086EE0E94871F892D0E94A120AA20BE
:100A900019F086EE0E94201FBB2019F081EE0E9403
:100AA000201FFFEFEF1AFF0AAFCF809106018111DF
:100AB00004C081E08093060121C0109206010E94CB
:100AC000FA0F1CC00E94FA0F80910601882309F4D6
:100AD0006AC08091E601811166C00E94EA19909374
:100AE000C8018093C7011093C6010093C50182E03D
:100AF0000E94431C58C50E94FA0F55C0F60182811E
:100B0000882351F11092C9010631FCE51F0749F114
:100B100060F401303CE5130709F414C408F025C45F
:100B200001151C4509F4CFC37EC00E3DECE51E0740
:100B300009F411C450F40C3D2CE5120709F40EC45D
:100B40000D3D1C4509F40DC46EC0C801875F9C456E
:100B5000079708F40AC467C00631FCE51F0709F0CF
:100B60009AC39091E601882381F09A7A81E009F492
:100B700080E08093CA01811102C069E201C065E38F
:100B800085E192E00E94601A0BC08091CA01811138
:100B900002C069E201C065E385E192E00E94351A76
:100BA0000E94231B00C5003FFCE51F0739F426E225
:100BB00041EE60EEC6010E949E11F5C4013F2CE596
:100BC0001207C0F4083D3CE5130721F427E245EE87
:100BD00065EEF0CF093D8CE5180719F428E241E0F5
:100BE000F7CF073D9CE5190709F088CF26E241EED3
:100BF00061EEE0CF023FECE51E0721F426E241EE74
:100C000062EED8CF023FFCE51F0720F427E245EE55
:100C100064EED0CF033F2CE5120709F06FCF27E237
:100C200045EE66EEC7CFF60100811181C8010E9432
:100C3000691BF82E682FC8010E94E21BB8018F2D96
:100C40000E94550D182F382FF601258122952F70FF
:100C5000028101111092AA028091A8028770A9F066
:100C6000002399F080E2810F883078F082E02F87AE
:100C7000388B9E870E94431C8091A8028770EE24C7
:100C8000E3942F8538899E858111E12CA92EA294A9
:100C90004FE0A422B12CFCE0AF16B10408F0D9C299
:100CA000F501EA5AFF4F0C941325892F807F9F701E
:100CB000F92E882319F0F29480EFF8220023B9F07E
:100CC000FF2009F457C280E2810F883010F0311103
:100CD00006C09091E601F92AF092E60105C09091D4
:100CE000AA02F92AF092AA020E94231B43C2812F72
:100CF000388B0E94201F3889FF2009F4AAC2105E99
:100D0000F094183010F0311106C09091E601F922EC
:100D1000F092E60105C09091AA02F922F092AA028F
:100D20000E94231B96C2492F407F892F8F7040322B
:100D300011F08295807F332319F03130E9F025C01E
:100D4000002381F03091AB02222351F0213041F495
:100D5000982F932B391709F47CC29093AB0279C278
:100D6000832B17C0222319F0213009F472C28E8719
:100D70000E941D1B8E851DC0002321F0223008F02B
:100D800068C207C0211165C214C0002329F02111D7
:100D9000F1C10E94161F5DC2222359F0193309F0D8
:100DA000FBC10FEF27EE33E0015020403040E1F768
:100DB000F1C10E940B1F4DC2292F26952695237045
:100DC00030E02115310521F02130310559F041C2C3
:100DD000002319F0812F937002C080E090E00E9400
:100DE0002D0D40C2002319F0812F937002C080E0C6
:100DF00090E00E94170D36C20023F9F0153F51F024
:100E0000163F71F0143FA9F48091CB019091CC0171
:100E100081600BC08091CB019091CC01826005C0B4
:100E20008091CB019091CC0184609093CC01809310
:100E3000CB01812F0E9432191EC0153F51F0163F81
:100E400071F0143FA9F48091CB019091CC018E7F79
:100E50000BC08091CB019091CC018D7F05C080911A
:100E6000CB019091CC018B7F9093CC018093CB01EF
:100E7000812F0E9468180E94F619F4C1892F83708F
:100E800009F070C00111ECC1812F829586958770A1
:100E9000880F880F412F4F7050E060E070E04A01EA
:100EA0005B01082E04C0880C991CAA1CBB1C0A9468
:100EB000D2F714FF12C00FE010E020E030E004C0D1
:100EC000000F111F221F331F8A95D2F7B901A80105
:100ED000409550956095709503C040E050E0BA0190
:100EE000969596959370892F90E08230910529F11F
:100EF00083309105C9F00091AC021091AD022091B0
:100F0000AE023091AF02019759F0482959296A2958
:100F10007B29CB01BA0160237123822393230AC06A
:100F2000802A912AA22AB32ACB01BA0168297929F9
:100F30008A299B290E947D1C93C1482959296A2925
:100F40007B298091AC029091AD02A091AE02B0914C
:100F5000AF028A019B01082719272A273B27C901CD
:100F6000B801E8CF002319F0892F817001C0869560
:100F7000882309F475C1812F829586958770880F23
:100F8000880F412F4F7050E060E070E04A015B0134
:100F9000082E04C0880C991CAA1CBB1C0A94D2F70A
:100FA00014FF12C00FE010E020E030E004C0000F9A
:100FB000111F221F331F8A95D2F7B901A80140954E
:100FC00050956095709503C040E050E0BA01969549
:100FD00096959370892F90E082309105E9F08330E7
:100FE000910579F10091A4021091A5022091A60229
:100FF0003091A702019759F0482959296A297B297C
:10100000CB01BA01602371238223932320C0802A5D
:10101000912AA22AB32A15C0482959296A297B296D
:101020008091A4029091A502A091A602B091A7027E
:101030008A019B01082719272A273B27C901B801E4
:1010400006C0CB01BA01682979298A299B290E9407
:10105000121C06C19F70F92E002339F0892F0E94BF
:101060005C1C812F0E94161FFBC0812F0E940B1F4A
:101070008F2D0E941E1CF4C0812F323FC9F128F42D
:10108000303F49F0313F79F170C0333FC1F1343F17
:1010900009F44DC06AC0002311F12111DAC0292FD3
:1010A0002F7181E090E0A0E0B0E0AC01BD0104C090
:1010B000440F551F661F771F2A95D2F78091A4020F
:1010C0009091A502A091A602B091A7028A019B016E
:1010D000082719272A273B27C901B80125C0223034
:1010E00008F0B7C0DCCF002329F0892F8F712EC004
:1010F0000023D9F3892F8F710E941E1CAAC00023E0
:1011000081F0292F2F7181E090E0A0E0B0E0BC01D8
:10111000CD0104C0660F771F881F991F2A95D2F74B
:1011200003C060E070E0CB010E94121C92C000235B
:1011300081F0192F1F71812F0E945C1C28E0129FE3
:10114000C001112483608093A802812F0E945C1C3F
:1011500080C081E02F870E94431C2F85223008F435
:1011600078C082E00E94431C74C0002339F022231F
:1011700009F4BBCF812F0E94871F6BC0222309F483
:10118000B9CF893349F43FEF87EE93E03150804087
:101190009040E1F700C00000812F0E94201F59C03D
:1011A000323FB1F028F4303F49F0313FF9F028C028
:1011B000343FB9F058F0353F71F022C0002309F4F4
:1011C00051C09091B60281E0892708C081E00827CC
:1011D0000093B60247C0011145C081E08093B6027A
:1011E00041C001113FC01092B6023CC0002329F05B
:1011F0008091B502882329F329C0222311F332C03C
:101200008091B5022223C1F0882341F09091B6026B
:1012100081E089278093B6021092B502812F0023C6
:1012200019F00E94871F1EC00E94201F86E0F60151
:1012300011928A95E9F716C08823A1F0011112C016
:101240009091B60281E089278093B6021092B50290
:1012500009C0F8E0AF1AB10804E0A016B10410F418
:101260000E94430DEE2009F49EC18091A80280FDEA
:101270009AC1F60112828595859585950E945C1C20
:10128000C6010E947B038091A8028595859585956E
:101290000E941E1C88C107312CE5120750F401156D
:1012A0003CE5130708F477C102301C4508F47BC104
:1012B00072C10C3D9CE5190708F46DC10F3D1C453A
:1012C00008F471C168C11092E6010E94F81EFFEF98
:1012D00004E31CE0F15000401040E1F700C00000C2
:1012E000F89481E08093E00080E28093D80010922F
:1012F000C9008FE19EE40197F1F700C000001DBA1C
:10130000109268001CBC10BE1FBA10927A00109296
:101310006E0010926F001092710010927200109285
:10132000C9001092BC0014B817B81AB81DB810BA8A
:101330001092BC0015B818B81BB81EB811BA0C949E
:10134000003F31C18091EC02982F909590FB80F97D
:101350008093EC0228C10E94A91A25C11092FB02B9
:1013600022C182E08093FB021EC180E090E00E94D7
:10137000B1248F3E9E4F11F00E94A91A0E94981A24
:101380009093D0028093CF020F308CE5180709F4B8
:10139000CDC008F042C00830ECE51E0709F4A8C033
:1013A000F0F404302CE5120709F490C068F4023020
:1013B0008CE5180709F486C003301C4509F0D9C034
:1013C0008091CF028260D3C00630ECE51E0709F49D
:1013D00087C008F089C08091CF028860C8C00B30F8
:1013E0002CE5120709F493C068F409308CE518075E
:1013F00009F482C00A301C4509F0BBC08091CF02BD
:1014000088607EC00D30ECE51E0709F484C008F04A
:1014100085C08091CF028D7FAAC0073F2CE51207BF
:1014200009F457C050F502318CE5180709F486C05D
:1014300068F40031ECE51E0709F47CC001311C455D
:1014400009F097C08091CF028F7B91C004312CE5C9
:10145000120709F483C008F475C005311C4509F072
:1014600088C08091CF0282FB222720F991E0922749
:1014700090FB82F990FB83F97AC00A3F9CE519073B
:1014800009F450C058F4083FFCE51F0729F1093F53
:101490001C4509F06EC08091D0025CC00C3F3CE559
:1014A000130709F454C070F10D3F1C4509F061C0E9
:1014B0008091D002982F909591708E7F892B90FB10
:1014C00081F949C08091CF02816051C08091CF02E3
:1014D00017C08091D00219C08091D00282603BC0B9
:1014E0008091CF02806143C08091CF0280623FC073
:1014F0008091CF0280643BC08091CF02806837C06A
:10150000846035C08091D0028260816024C0809167
:10151000CF028E7F2CC08091CF0217C08091CF0266
:10152000877F25C08091D0028D7F15C08091CF022A
:101530008F7E1DC08091CF028F7D19C08091CF0218
:101540008F7715C08091CF02877F8B7F10C08091ED
:10155000D0028D7F8E7F8093D0020BC08091CF020E
:1015600087FB222720F991E0922790FB87F980934F
:10157000CF026091CF021091D00284E090E00E94EF
:10158000B724612F81E290E00E94B7241092E60117
:101590000E94F81E08C0F60100811181C8010E9456
:1015A000B51BF82E4BCB60960FB6F894DEBF0FBE7E
:1015B000CDBFDF91CF911F910F91FF90EF90DF9002
:1015C000CF90BF90AF909F908F9008959091CF0251
:1015D00092FF0DC0282F2871283019F4877F84606E
:1015E00006C0282F2471243011F48B7F886093FF6C
:1015F0000DC0282F2871283119F4877E846106C018
:10160000282F2471243111F48B7E88612091D0021F
:1016100020FF0DC0382F3871383019F4877F816072
:1016200006C0382F3171313011F48E7F886021FF70
:101630000DC0282F2871283119F4877E816106C0DA
:10164000282F2171213111F48E7E886194FD877ECF
:1016500008950F931F93CF93DF939C013A95211523
:101660003F4148F5EB018C0190FF03C080EEFB0188
:10167000099511FF03C081EEFE01099512FF03C019
:1016800082EEFE01099513FF03C083EEFE0109956A
:101690000115104180F084EEFE01099585EEFE01F2
:1016A000099586EEFE01099587EEFE01DF91CF9147
:1016B0001F910F910994DF91CF911F910F91089580
:1016C000282F277081E090E001C0880F2A95EAF763
:1016D00080959091AA0289238093AA020C94231BDF
:1016E000282F277081E090E001C0880F2A95EAF743
:1016F00080959091AA0289238093AA020C94231BBF
:10170000282F277081E090E001C0880F2A95EAF722
:101710009091AA02892B8093AA020C94231B282F54
:10172000277081E090E001C0880F2A95EAF7909138
:10173000AA02892B8093AA020C94231BCF93E82F33
:10174000873080F580910A0190910B01892B09F077
:1017500047C0CE2F64E670E080E40E94F3239093AC
:101760000B0180930A01892BD1F464E670E082E1D9
:101770000E944A2490930B0180930A01892B79F4EB
:1017800081E090E001C0880FCA95EAF764E670E056
:1017900080950E944A2490930B0180930A01CF9177
:1017A0000C949F2490E0FC013797E730F105C0F4DA
:1017B000EE59FF4F0C941325209A289811C0219AB6
:1017C00029980EC0229A2A980BC0239A2B9808C0F9
:1017D000529A5A9805C0539A5B9802C03E9A46980E
:1017E000CF910895CF93873008F03FC080910A01D0
:1017F00090910B01892B09F041C064E670E080E410
:101800000E94F32390930B0180930A01892B11F01E
:10181000C0E027C064E670E083E10E944A24909310
:101820000B0180930A01892B99F764E670E081E44B
:101830000E94F32390930B0180930A01892B41F7B7
:1018400084E690E00E947A2497FF05C090930B01F4
:1018500080930A01DDCFC82FC09510920B01109222
:101860000A010E949F248C2F0AC09FB18FB1807FF4
:10187000869586959370892B809501C080E0CF91E5
:101880000895EF92FF920F931F93CF93DF93CDB7FD
:10189000DEB767970FB6F894DEBF0FBECDBF4B8B98
:1018A0005C8B6D8B7E8B8F8B0E891F8901151105CB
:1018B000C1F15F3F11F44F3FA1F1E42EF12CA1E003
:1018C000B0E0042E01C0AA0F0A94EAF7852F90E039
:1018D000662319F02091B60206C09C0129523E4FA2
:1018E000F90120812A232223A9F046E0489F900194
:1018F000499F300D1124F701E20FF31FEE0FFF1F78
:10190000E55EFE4F40815181FC01E952FE4F90811E
:10191000A92B06C0FC01E952FE4FA0958081A823A7
:10192000A08386E0FE013D96DF01982F1D929A95D7
:10193000E9F74D875E876F87198B088BDE01179655
:1019400001900D928A95E1F7CE0107960E94131D32
:10195000811137C086E0FE013796DE0111960190B5
:101960000D928A95E1F7FF81E8856A857B8561158F
:10197000710539F1EF3F11F4FF3F19F120913B025E
:1019800030E0C90101968770992740916C0250E0C0
:101990008417950779F1F983EA837D836C8396E058
:1019A000929FD001939FB00D1124A45CBD4FFE0106
:1019B000319601900D929A95E1F780933B020E9437
:1019C000871C16E080916C0290913B02891711F1FF
:1019D000189FC0011124845C9D4F0E94131D882311
:1019E000C9F080916C0290E00196877099278093EE
:1019F0006C02E8CF1092E6010E94F81E10923B02A2
:101A000010926C02E5E3F2E086E0DF011D928A9518
:101A1000E9F7D7CF67960FB6F894DEBF0FBECDBFFC
:101A2000DF91CF911F910F91FF90EF90089520913A
:101A3000D5013091D6018217930771F09093D601AA
:101A40008093D501E091D102F091D202309721F03C
:101A50000084F185E02D099408952091D3013091FF
:101A6000D4018217930771F09093D4018093D3012E
:101A7000E091D102F091D202309721F00680F781F7
:101A8000E02D09940895E091D102F091D2023097AF
:101A900021F00190F081E02D099480E0089560919B
:101AA000B9028CE090E00C94B724CF93DF9326E04A
:101AB000729FF001112434E5839FE00DF11D112484
:101AC000E60FF11DEE0FFF1FE05FFE4FC591D491B1
:101AD000CE01C238D10569F1B0F4C133D10509F4A2
:101AE00075C048F4C932D10509F469C0CA32D105BC
:101AF00009F473C079C0C533D10509F459C0C9339D
:101B0000D105B9F071C0C33ED10571F138F4C03EC2
:101B1000D105B1F0C23ED10511F166C0C63ED10576
:101B2000B9F1C73ED105C9F1C43ED10509F05CC089
:101B300024C02091CF0220FD29C221FD27C22BC243
:101B40002091CF0220FD1CC22091D00220FF23C291
:101B50008091CF0284FDC6C183EE90E01CC220912B
:101B6000CF0222FF18C2F4CF8091CF0282FD0BC2B8
:101B70008091D00280FD0AC2EBCF2091D00221FFDC
:101B80000AC28091CF0284FDADC187EE90E003C20E
:101B90002091CF0223FFFFC1F4CF8091CF0283FDBC
:101BA000F8C18091D00281FFECCF84EE90E0F3C1C8
:101BB0002091CF0225FFEFC189E290E0ECC1209196
:101BC000CF0225FFE8C185E390E0E5C12091CF0277
:101BD00026FFE1C18AE290E0DEC12091CF0226FF1C
:101BE000DAC181E390E0D7C1C11540E5D40708F020
:101BF00047C0C11520E4D20708F034C1C83ED10562
:101C000018F5C03ED10508F0C6C1C83AD10570F438
:101C1000C53AD10508F0B1C0C130D10509F4BBC146
:101C200008F460C1249708F45DC1B5C1CF3BD1056C
:101C300008F4AEC0C03CD10508F454C1FE01EE0F5B
:101C4000FF1FE055FC4F03C1C11530E2D30760F41C
:101C5000C11541E0D40708F09EC1C03FD10508F48A
:101C600041C1CE01906597C1C11580E3D80708F046
:101C7000F1C0FE01FF70EE0FFF1FE05DFA4FE7C0FD
:101C8000C11595E5D90708F044C0C11524E5D20770
:101C900008F002C1C11532E5D30710F5C11541E5C1
:101CA000D40708F0E4C08C2F837021E030E002C03C
:101CB000220F331F8A95E2F73C68CE0174E09695B7
:101CC00087957A95E1F78370382BEC2FEF70E695C6
:101CD000E69540E2E49FC0011124822B932B5BC167
:101CE0002C2F26952695AE0143705527C115D34557
:101CF00008F0C3C080E2289F9001112481E090E0A9
:101D000002C0880F991F4A95E2F7822B932B9C689B
:101D100042C1C1159AE5D907A8F4C11529E5D20732
:101D200008F0C9C0C11536E5D30708F4BBC0C1151A
:101D300048E5D40708F4D6C0FC2FEE27CF01806F0A
:101D4000906A29C1C1158BE5D80708F4CBC0C1152D
:101D50009CE5D90708F4C2C0CE0190568115904287
:101D600008F0C0C08D2F8F710E94E60AFE01FF2788
:101D7000F0628F719F01382BAFC0C53AD10509F4CD
:101D8000B4C0C63AD10509F0B3C082E890E403C1FB
:101D9000C83AD10509F4AFC0C93AD10509F4AEC0BB
:101DA000CA3AD10509F4ADC0CB3AD10509F4ACC0AB
:101DB000CC3AD10509F4ABC0CB3BD10509F4AAC09C
:101DC000CC3BD10509F4A9C0CD3AD10509F4A8C08E
:101DD000C03BD10509F4A7C0CE3AD10509F4A6C08D
:101DE000CF3AD10509F4A5C0C13BD10509F4A4C07F
:101DF000C23BD10509F4A3C0C33BD10509F4A2C07D
:101E0000C43BD10509F4A1C0C53BD10509F4A0C06C
:101E1000C63BD10509F49FC0C73BD10509F49EC05C
:101E2000C83BD10509F49DC0C93BD10509F49CC04C
:101E3000CD3BD10509F49BC0CE3BD10509F49AC036
:101E4000CA3BD10509F499C080E094E4A4C085910F
:101E50009491A1C0CE019927D3FF02C0986C9BC07A
:101E6000906C99C0FE01FF70CF01906A94C0FC2F66
:101E7000EE27CF01816F906A8EC090E2299F90017A
:101E8000112481E090E002C0880F991F4A95E2F783
:101E9000822B932B9A687FC0FC2FEE27CF01846F93
:101EA000906A79C08C2F0E94E60A8F7190E0982F7B
:101EB0008827906270C08C2F8F700E94E60AFE0106
:101EC00094E0F695E7959A95E1F7EF70F0E0FE2F34
:101ED000EE27F0699F01282BC9015DC0CE0199272B
:101EE000906659C080E090E056C081E890E453C00D
:101EF00083E890E450C082EE94E44DC089EE94E40F
:101F00004AC08AEE94E447C085EB94E444C086EB73
:101F100094E441C083EB94E43EC084EB94E43BC082
:101F200087EB94E438C08CEC94E435C08DEC94E4F9
:101F300032C083E895E42FC08AE895E42CC082E99A
:101F400095E429C084E995E426C081E296E423C0A3
:101F500083E296E420C084E296E41DC085E296E424
:101F60001AC086E296E417C087E296E414C08FE6B2
:101F700094E411C080E794E40EC08AE296E40BC0BA
:101F800089E390E008C082EE90E005C080EE90E02A
:101F900002C086EE90E0DF91CF910895CF93DF935A
:101FA000EC010E94201FCE01805E9109089710F07D
:101FB000209719F460E67BE002C060E77BE0CE0189
:101FC000DF91CF910C94290BCF93DF93EC01805ECE
:101FD0009109089710F0209719F460E87BE002C09F
:101FE0006FE87BE0CE010E94290B8C2FDF91CF910F
:101FF0000C94871FCF93DF938091C5019091C60108
:10200000892B29F18091C7019091C8010E94C019C4
:1020100020910701309108012817390760F4C09119
:10202000C501D091C601D260CE010E94E40FCE015D
:102030000E94CE0F04C08091C5010E94A120109281
:10204000C8011092C7011092C6011092C501DF911C
:10205000CF910895CF92DF92EF92FF920F931F934B
:102060006C01EE24FF24C114D104E104F10411F049
:10207000E0E103C06B017C01E0E033272F2D1E2D32
:102080000D2D011511052105310519F0E85F6801D5
:10209000790197018601F4E0369527951795079504
:1020A000FA95D1F7011511052105310519F0EC5FFD
:1020B000680179019701860152E0369527951795B9
:1020C00007955A95D1F7011511052105310519F02C
:1020D000EE5F68017901970186013695279517957E
:1020E0000795012B022B032B09F0EF5F56985E98A2
:1020F00025982D9826982E9827982F980E2F10E027
:10210000F8013197E730F105A8F4E759FF4F0C9437
:102110001325259A2D9A0EC0259A2D9A269A2E9A25
:1021200009C0259A2D9A04C0259A2D9A269A2E9A8E
:10213000279A2F9A1F910F91FF90EF90DF90CF90E9
:10214000089580E290E090930B0180930A018091C2
:10215000D00181110EC00E94ED2381E08093D00157
:102160002FEF83ED90E3215080409040E1F700C0D5
:10217000000064E670E080E40E94F32390930B017A
:1021800080930A01892B09F04EC064E670E080E07C
:102190000E944A2490930B0180930A01892B09F035
:1021A00042C064E670E080E00E944A2490930B01F4
:1021B00080930A01892BB9F564E670E08FE30E94F1
:1021C0004A2490930B0180930A01892B61F50E94A8
:1021D0009F2464E670E080E40E94F32390930B0157
:1021E00080930A01892BF9F464E670E08CE00E9488
:1021F0004A2490930B0180930A01892BA1F464E691
:1022000070E080E00E944A2490930B0180930A01C1
:10221000892B49F464E670E08FE30E944A2490938E
:102220000B0180930A010E949F2480910A01089566
:10223000CF93DF9356985E9825982D9826982E98E0
:1022400027982F98C8E8D0E08FEF90E09983888393
:10225000AAE8B0E011969C938E93ECE8F0E09183AD
:102260008083259A2D9A2FEF80E792E021508040BD
:102270009040E1F700C00000269A2E9A2FEF80E7E9
:1022800092E0215080409040E1F700C00000279A82
:102290002F9A2FEF80E792E0215080409040E1F7A5
:1022A00000C0000025982D982FEF80E792E0215084
:1022B00080409040E1F700C0000026982E982FEF54
:1022C00080E792E0215080409040E1F700C000009C
:1022D00027982F988091BD0287702FEF829FC001B1
:1022E0001124959587959595879599279983888346
:1022F00011969C938E939183808356985E9825982F
:102300002D9826982E9827982F98DF91CF91089591
:1023100084B1807F84B985B1807F85B98AB1837F9C
:102320008AB98BB1837F8BB93E984698089580B364
:102330008C7080BB81B3836F81BB08950F931F9313
:10234000CF93DF93C62FD42F022FFC0182818823E5
:10235000C9F06093C9010E94EA199093D201809359
:10236000D10180E28C0F883008F050C0C77081E046
:1023700001C0880FCA95EAF7DF91CF911F910F91A5
:102380000C94161F1091C901161330C08091D10111
:102390009091D2010E94C019883C910538F5C0E2A5
:1023A000CD0F1D17B9F080E2810F883040F417700F
:1023B00081E001C0880F1A95EAF70E940B1FC83010
:1023C00048F481E09D2F977001C0880F9A95EAF735
:1023D0000E94161F802F0E94A120C830B8F4D77029
:1023E00081E001C0880FDA95EAF70AC080E28C0F1D
:1023F000883060F4C77081E001C0880FCA95EAF7A1
:10240000DF91CF911F910F910C940B1FDF91CF9112
:102410001F910F9108959F92AF92BF92CF92DF923A
:10242000EF92FF920F931F93CF93DF9380910A0156
:1024300090910B01892B91F08091CF018F5F809358
:10244000CF0181110BC00E94A11090E090930B016D
:1024500080930A01892B11F40E94181101EC12E0FB
:1024600028ECE22E22E0F22E6801C0E0912C97E0E9
:10247000A92EAC0E8C2F0E949E0B8A2D0E949E0BC3
:102480008C2F0E94F20BF6019081981721F0808327
:10249000BB24B39401C0B12C8A2D0E94F20BF7012A
:1024A0009081981719F0808381E001C080E0B82AFC
:1024B0009B280E948811CF5FFFEFCF1ADF0A8FEFB2
:1024C000E81AF80AC73099F60E94EA196AEF70E034
:1024D0000E94EB249C01682F8091CE018823E9F1B2
:1024E0001092CE01E091B702F091B802DF011E9682
:1024F00090E07BEF8AEFE82EF12C80818B3FA9F0F2
:10250000482F50E0681728F0E901C41BD50BAE0135
:1025100006C06701C41AD50AA601420F531F4E31E7
:10252000510514F0708301C091E03196EA17FB0762
:1025300021F79093CE01911002C0911110C010921A
:10254000CD01A091B702B091B8029091CE01E4ED17
:10255000F2E080E03EE03E0F07C09110F0CF8091A6
:10256000CD018111ECCF16C0E80129918E01408187
:10257000421741F04C914B3F21F46C93208391E042
:1025800001C081E0119631963E13EECF9093CE01BB
:102590008093CD01892DDF91CF911F910F91FF90F5
:1025A000EF90DF90CF90BF90AF909F900895CF9223
:1025B000DF92FF920F931F93CF93DF931F92CDB7BC
:1025C000DEB7F82E8B0199830E94B4209981811186
:1025D0001CC0CF2CD92E01151105B1F08091E80057
:1025E00085FD0AC08091E8008E778093E8000E9404
:1025F000B420882381F309C0F60181916F01809393
:10260000F10001501109E7CF80E00F90DF91CF91E9
:102610001F910F91FF90DF90CF9008951F93CF935C
:10262000DF93CDB7DEB7AA970FB6F894DEBF0FBE23
:10263000CDBFEDE0F2E088E08E0F9091F100919334
:102640008E13FBCF80910E02833009F460C030F40A
:10265000813071F0823009F49CC0B3C08A3009F433
:1026600088C08B3009F46BC0893009F0AAC020C043
:1026700080910D02813A09F0A4C08091E800877F23
:102680008093E8008091110290911202892B21F42D
:1026900060E289EE91E003C060E080E090E070E0ED
:1026A0000E943A218091E8008B778093E80089C0EE
:1026B00080910D02813209F084C0809111029091C5
:1026C0001202029708F07DC08091E800877F809316
:1026D000E8008091E80082FD05C080910B02811125
:1026E000F8CF6FC02091F3008091F20090E0922B20
:1026F000029729F48091F1008B7F813021F4809141
:10270000F1008093E8018091E8008B7756C08091BA
:102710000D02813A09F055C0809111029091120288
:10272000892B09F04EC08091E800877F8093E800F4
:102730008091E80080FFFCCF8091090139C0809131
:102740000D028132F1F58091110290911202892BD4
:10275000C1F58091E800877F8093E8000E94E62021
:1027600080910F02809309011092E6010E94F81EE9
:1027700028C080910D02813221F58091E800877F89
:102780008093E8000E94E620809110028093E70188
:1027900018C080910D02813AA1F48091E800877FF2
:1027A0008093E8008091E80080FFFCCF8091E701F2
:1027B0008093F1008091E8008E778093E8000E947A
:1027C000E6208091E80083FFD6C180910D029091B0
:1027D0000E02492F50E04A30510508F0CCC1FA01F1
:1027E000E059FF4F0C941325803821F0823809F00E
:1027F000C2C108C08091090290910A02992389F010
:1028000082600FC0809111028F70873008F0B3C1D1
:102810008093E9008091EB0085FB882780F9109276
:10282000E9009091E800977F9093E8008093F10091
:102830001092F10074C1282F2D7F09F09CC18823CC
:1028400019F0823061F097C180910F02813009F058
:1028500092C1933009F080E080930A022EC08091EB
:102860000F0281112AC0809111028F702FEF280F63
:10287000263008F080C18093E9002091EB0020FF12
:102880001CC0933021F48091EB00806214C09091C1
:10289000EB0090619093EB0021E030E0A90102C0D1
:1028A000440F551F8A95E2F74093EA001092EA0020
:1028B0008091EB0088608093EB001092E90080919A
:1028C000E800877F2FC1811156C110910F021F7739
:1028D0008091E3008078812B8093E3008091E80071
:1028E000877F8093E8000E94E6208091E80080FFC7
:1028F000FCCF8091E30080688093E300111102C057
:1029000082E001C083E080930B0235C180588230A1
:1029100008F031C180910F02909110028C3D53E07C
:10292000950779F583E08A838AE289834FB7F89423
:10293000DE01139620E03EE051E2E32FF0E05093F9
:102940005700E49120FF03C0E295EF703F5FEF7006
:102950008E2F90E0EA3010F0C79601C0C0968D939C
:102960009D932F5F243149F74FBF8091E800877F07
:102970008093E8006AE270E0CE0101960E943A215D
:10298000BDC04091110250911202292F33272330EC
:102990003105B9F06CF42130310509F4FBC0223067
:1029A000310509F0E8C08BE390E0E0E3F6E054C0C5
:1029B0002132310509F433C02232310509F43CC01B
:1029C000DAC0992781309105D1F05CF4892B09F0A8
:1029D000D2C0E3EBF6E0E4918E2F90E0E3EBF6E07B
:1029E00038C08230910599F0039709F0C4C0EDE733
:1029F000F6E0E4918E2F90E0EDE7F6E02AC0EBE9F7
:102A0000F6E0E4918E2F90E0EBE9F6E022C0E3E8F7
:102A1000F6E0E4918E2F90E0E3E8F6E01AC041156D
:102A2000510509F4BCC04130510509F0A4C089E04A
:102A300090E0EBE5F6E010C04115510509F4B4C093
:102A40004130510509F097C080EC90E0E0E3F5E0FB
:102A500003C0009709F48FC02091E800277F2093DE
:102A6000E80020911302309114022817390708F466
:102A7000C90140E0009789F120910B02222309F45B
:102A80003DC02530D9F12091E80023FD37C02091C9
:102A9000E80022FD2FC02091E80020FFEBCF4091FD
:102AA000F3002091F20030E0342B009759F02830E9
:102AB000310540F444914093F100319601972F5F26
:102AC0003F4FF3CF41E02830310509F040E020913D
:102AD000E8002E772093E800CDCF4111CDCF0AC07A
:102AE00080910B02882351F0853041F08091E800FD
:102AF00083FD04C08091E80082FFF2CF8091E8005E
:102B00008B778093E80037C08038A9F58091E80082
:102B1000877F8093E80080910C028093F100809180
:102B2000E8008E778093E8000E94E62024C081119F
:102B300022C010910F021230F0F48091E800877FDC
:102B40008093E80010930C020E94E620111106C049
:102B50008091E30087FD02C081E001C084E08093A2
:102B60000B0242E061EC81E00E94052142E261EC4F
:102B700082E00E9405218091E80083FF1AC08091C5
:102B8000E800877F8093E8008091EB00806280936B
:102B9000EB000FC082E190E0EBE6F6E05DCF89E06C
:102BA00090E0E2E4F6E058CF80E490E0E0EFF5E07A
:102BB00053CFAA960FB6F894DEBF0FBECDBFDF91FC
:102BC000CF911F9108951F920F920FB60F9211246B
:102BD0002F933F934F935F936F937F938F939F9325
:102BE000AF93BF93CF93DF93EF93FF93C091E9002F
:102BF000CF708091EC00D82FD17080FDD0E810927A
:102C0000E9008091F000877F8093F00078940E9423
:102C10000E131092E9008091F00088608093F0001C
:102C2000CD2BCF70C093E900FF91EF91DF91CF9151
:102C3000BF91AF919F918F917F916F915F914F91D4
:102C40003F912F910F900FBE0F901F901895E8EDB8
:102C5000F0E080818E7F80831092E2001092DA0093
:102C60001092E100A0EEB0E08C9181608C938081A5
:102C70008F77808319BCA7EDB0E08C918E7F8C9309
:102C800080818F7E80831092E5010895CF92DF923C
:102C9000EF92FF920F931F93CF93DF93C8EDD0E095
:102CA00088818F7E8883E7EDF0E08081816080837A
:102CB00084E082BF81E08093E50188818E7F8883F4
:102CC00002EE10E0F80110821092DA0081EEC82EB8
:102CD000D12CF601108288818F7788838881806863
:102CE000888388818F7D888319BC10920B02109293
:102CF0000C0210920A021092090290EEE92EF12CB9
:102D0000F70180818B7F808388818160888342E0A6
:102D100060E080E00E940521F60180818E7F808343
:102D2000F801808181608083808188608083F701E1
:102D300080818E7F8083888180618883DF91CF91BD
:102D40001F910F91FF90EF90DF90CF9008951F9209
:102D50000F920FB60F9211242F933F934F935F93CF
:102D60006F937F938F939F93AF93BF93EF93FF9353
:102D70008091E10082FF09C08091E20082FF05C0DE
:102D80008091E1008B7F8093E1008091DA0080FFE9
:102D90002AC08091D80080FF26C08091DA008E7F03
:102DA0008093DA008091D90080FF18C080E189BD4E
:102DB00082E189BD09B400FEFDCF81E080930B0262
:102DC0008091E50181110FC00E9427160E944616CE
:102DD0008091E20084608093E20005C019BC1092EB
:102DE0000B021092E5018091E10080FF17C08091F5
:102DF000E20080FF13C08091E2008E7F8093E200AA
:102E00008091E20080618093E2008091D80080622E
:102E10008093D80019BC85E080930B028091E1007B
:102E200084FF34C08091E20084FF30C080E189BD1E
:102E300082E189BD09B400FEFDCF8091D8008F7D6D
:102E40008093D8008091E1008F7E8093E100809193
:102E5000E2008F7E8093E2008091E20081608093A7
:102E6000E20080910C02882311F084E007C0809179
:102E7000E30087FD02C081E001C083E080930B0284
:102E80001092E6010E94F81E0E94430D8091E1001D
:102E900083FF27C08091E20083FF23C08091E1007F
:102EA000877F8093E10082E080930B0210920C02F6
:102EB0008091E1008E7F8093E1008091E2008E7F1F
:102EC0008093E2008091E20080618093E20042E022
:102ED00060E080E00E9405218091F000886080938E
:102EE000F000FF91EF91BF91AF919F918F917F91F2
:102EF0006F915F914F913F912F910F900FBE0F9067
:102F00001F9018958091E8010895CF93DF9300D02A
:102F10001F92CDB7DEB720910B02243031F523E0AC
:102F20002983805891099B838A8382E08093E900FA
:102F30008FEF9091E800815095FD06C095ED9A9530
:102F4000F1F700008111F5CF8091E80085FF0DC0F9
:102F500040E050E063E070E0CE0101960E94D7129D
:102F60008091E8008E778093E8000F900F900F908B
:102F7000DF91CF9108950F931F93CF93DF9300D0EC
:102F80001F92CDB7DEB78C010E949D21823011F0D7
:102F9000843021F584E089831B830A8382E0809357
:102FA000E9008FEF9091E800815095FD06C095ED06
:102FB0009A95F1F700008111F5CF8091E80085FF27
:102FC0000DC040E050E063E070E0CE0101960E9449
:102FD000D7128091E8008E778093E8000F900F90D1
:102FE0000F90DF91CF911F910F910895CF93DF93B1
:102FF000EC010E949D21823011F08430F9F482E0CE
:103000008093E9009FEF8091E800915085FD06C014
:1030100085ED8A95F1F700009111F5CF8091E800D8
:1030200085FF0CC040E050E066E070E0CE010E94F9
:10303000D7128091E8008E778093E800DF91CF91DE
:103040000895CF93DF93EC010E949D21823011F00F
:103050008430D9F580910901882339F08091CF021D
:1030600087FF03C060E282E002C068E081E08093F5
:10307000E9008FEF9091E800815095FD06C095ED35
:103080009A95F1F700008111F5CF8091E80085FF56
:103090001CC080910901811105C040E050E068E04A
:1030A00070E003C070E040E050E0CE010E94D71213
:1030B0008091E8008E778093E80080E2FE01A9EE1F
:1030C000B1E001900D928A95E1F7DF91CF910895DB
:1030D000803F39F48091E50287FF6CC01092E502D1
:1030E00069C0813F29F48091E5021816BCF362C0E3
:1030F0009091E402823F29F497FF5CC01092E402B1
:1031000059C0833F19F41916CCF354C0893F41F4D8
:103110008091E60218160CF04DC01092E6024AC0EB
:103120008A3F29F48091E60287FF44C0F6CF8B3FA7
:1031300039F48091E70287FF3DC01092E7023AC060
:103140008C3F29F48091E7021816BCF333C0843F0A
:1031500021F48091E3028E7F17C0853F21F4809196
:10316000E3028D7F11C0863F21F48091E3028B7FC3
:103170000BC0873F21F48091E302877F05C0883F21
:1031800031F48091E3028F7E8093E30213C08D3F80
:1031900021F48091B4028E7F0BC08E3F21F4809188
:1031A000B4028D7F05C08F3F29F48091B4028B7FDC
:1031B0008093B4028091E40281110EC08091E502F7
:1031C00081110AC08091E602811106C08091E70258
:1031D000811102C01092E80208958091B40280FD2E
:1031E00016C081FD16C082FD18C08091E8028823B8
:1031F00091F0883290F428E0829FC001112468E2A7
:1032000070E00E94FF24862F672B29F007C082E020
:10321000089584E0089581E0089588E008958091FC
:10322000B40280FD17C081FD17C082FD19C08091D6
:10323000E802882399F08C3398F423E2829FC0013E
:1032400011246CE370E00E94FF24862F672B49F461
:1032500081E0089588E0089581E1089585E008956A
:1032600083E20895803F21F40E940F19819504C0E4
:10327000813F29F40E940F198093E5020895823F4F
:1032800021F40E940F19819504C0833F29F40E9404
:103290000F198093E4020895893F19F40E94ED18F4
:1032A00005C08A3F31F40E94ED1881958093E602B3
:1032B00008958B3F21F40E94ED18819504C08C3F46
:1032C00029F40E94ED188093E7020895843F21F4C9
:1032D0008091E302816017C0853F21F48091E30271
:1032E000826011C0863F21F48091E30284600BC0AC
:1032F000873F21F48091E302886005C0883F31F464
:103300008091E30280618093E30208958D3F21F470
:103310008091B40281600BC08E3F21F48091B40291
:10332000826005C08F3F29F48091B402846080934D
:10333000B402089578941F920F920FB60F92112441
:103340008F939F93AF93BF938091B0029091B102FE
:10335000A091B202B091B3020196A11DB11D80935C
:10336000B0029093B102A093B202B093B302BF91A6
:10337000AF919F918F910F900FBE0F901F90189556
:10338000CF92DF92EF92FF920F931F932FB7F89493
:103390004091B0025091B1026091B2027091B302BB
:1033A0002FBF6A017B01EE24FF248C0120E030E076
:1033B000C016D106E206F30610F4415051099A01F5
:1033C000281B390BC9011F910F91FF90EF90DF90DF
:1033D000CF9008952FB7F8948091B0029091B102E8
:1033E000A091B202B091B3022FBF0895E091D10233
:1033F000F091D202309749F082E08093E20204809B
:10340000F581E02D82EE92E009950E94EA199093F1
:10341000EA028093E90208951F920F920FB60F926D
:1034200011248F939F93AF93BF938091D302811107
:1034300013C08091B0029091B102A091B202B091FC
:10344000B3024196A11DB11D8093B0029093B102C9
:10345000A093B202B093B302BF91AF919F918F91AD
:103460000F900FBE0F901F901895209109012223F5
:1034700021F02091CF0227FD04C0FC01329608966E
:1034800019C0262F2695269526952E31C0F4FC01CD
:10349000E20FF11D677081E090E001C0880F6A952E
:1034A000EAF7809592818923828308953196E817FF
:1034B000F90729F020812613F9CF1082F7CF08955C
:1034C00020910901222321F02091CF0227FD05C080
:1034D000FC0132962FEF30E019C0262F2695269555
:1034E00026952E3120F5FC01E20FF11D677081E079
:1034F00090E001C0880F6A95EAF79281892B828358
:1035000008952F3F39F03F5F363041F04191461327
:10351000F8CF0DC04111F7CF232FF5CF2F3F39F052
:10352000FC01E20FF11D27FDFA95628308950895CD
:10353000CF9384E090E00E94A324C82F81E290E022
:103540000E94A3242C2F30E0A901582BCA01CF914F
:1035500008956FEE7EEF80E090E00E94D52460E059
:1035600082E090E00E94B72460E083E090E00E9457
:10357000B7241092AC021092AD021092AE021092DB
:10358000AF0260E084E090E00E94B72460E081E256
:1035900090E00E94B72460E085E090E00E94B724AC
:1035A00060E086E090E00E94B7246FEF87E090E053
:1035B0000E94B72440E050E0BA0188E090E00E9409
:1035C000C92460E08DE090E00E94B72440E050E024
:1035D000BA0188E190E00E94C92460E087E190E0B0
:1035E0000E94B72440E050E0BA018CE190E00E94D4
:1035F000C92460E080E290E00E94B7241092BD02EE
:103600001092BE021092BF021092C00284E080614C
:103610008093BD024091BD025091BE026091BF02F5
:103620007091C0028FE090E00E94C92440E050E019
:10363000BA0183E190E00C94C9248091AB0281111E
:103640001092AB0208959091AA028091E601892B15
:103650002091A902982F922B909315028091AB0292
:103660008823D9F0892B8093150280910901882342
:1036700031F08091CF0287FF02C08EE101C086E069
:10368000E7E1F2E090E0815028F021912223D9F384
:103690009F5FF9CF91110E941D1BE091D102F09123
:1036A000D2023097A9F080910901882359F08091C6
:1036B000CF0287FF07C0809115028093160285E034
:1036C000809315020280F381E02D85E192E0099458
:1036D0000895BF92CF92DF92EF92FF920F931F93C4
:1036E000CF93DF938C01C090AC02D090AD02E090FC
:1036F000AE02F090AF028091A4029091A502A09139
:10370000A602B091A702C82AD92AEA2AFB2ACFE149
:10371000D0E0D701C6010C2E04C0B695A7959795A9
:1037200087950A94D2F780FF07C0BC2EB8018C2F72
:103730000E94550D019719F4219758F7B12C8B2D44
:10374000DF91CF911F910F91FF90EF90DF90CF907D
:10375000BF900895CF93DF93EC010E94691BBE01D7
:103760000E94550DDF91CF910895292F220F920FBE
:10377000990F890F682F669566956695982F9770B3
:1037800085E0689FB001112440E050E080E0FA013C
:10379000E60FF71FE359FD4F208130E0092E02C0EC
:1037A000369527950A94E2F721703327042E01C03D
:1037B000220F0A94EAF7822B4F5F5F4F4530510585
:1037C00031F70895292F220F920F990F890FA82FF3
:1037D000A695A695A695877051E001C0550F8A95CC
:1037E000EAF785E0A89FD001112420E030E070E0E6
:1037F000F901EA0FFB1FE359FD4F4081CB01022E77
:1038000002C0969587950A94E2F781709927819571
:1038100084278523842780832F5F3F4F2530310500
:1038200039F708950E942A106093A4027093A502AC
:103830008093A6029093A7020C94DD1E0F931F9312
:1038400041E050E060E070E004C0440F551F661F87
:10385000771F8A95D2F74095509560957095809125
:10386000A4029091A502A091A602B091A7028A019C
:103870009B01082319232A233B23C901B8011F9167
:103880000F910C94121C2091A802809582238093A2
:10389000A802982F977079F430E0482F082E000C7A
:1038A000550B2417350739F08595859585950E9428
:1038B0001E1C1092A80208950F931F9341E050E040
:1038C00060E070E004C0440F551F661F771F8A95A3
:1038D000D2F78091A4029091A502A091A602B09186
:1038E000A7028A019B01082B192B2A2B3B2BC9010C
:1038F000B8011F910F910C94121C6093AC0270934D
:10390000AD028093AE029093AF020C94DD1E8091C5
:103910006C0290913B02891719F08F5F8770FBCF83
:10392000089580913A0282958F7009F054C0809179
:103930003702882309F44FC080916C02A0913B02AA
:1039400060913502709136024091380250913902EF
:10395000B6E08A1709F43FC090E041155105C1F166
:103960007F3F11F46F3FA1F1B89FF001B99FF00DB7
:103970001124E45CFD4F218172132AC0208162135F
:1039800027C02281211124C02381348124173507C7
:1039900010F421503109241B350B283C3105C0F4AB
:1039A00020913A022F70206120933A0226E0289F4E
:1039B000F001299FF00D1124EF5BFD4F80818F7086
:1039C0008061808385E392E00E947B030C94871CD6
:1039D00001968770BECF08950E94AA1B292F2F70D1
:1039E00092959F70E92FF0E03297EE30F105B8F430
:1039F000E658FF4F0C941325803F99F018F4883E49
:103A000070F40FC0843F59F40CC0883E50F0813FE1
:103A100031F407C0822F869586958695089580E0BB
:103A2000089581E00895BF92CF92DF92EF92FF92C6
:103A30000F931F93CF93DF93CDB7DEB761970FB688
:103A4000F894DEBF0FBECDBF8C0185E0F801DE012A
:103A50001D9601900D928A95E1F7D8013C9111963F
:103A60002C9111971296EC9012971396CD90DC90B2
:103A700014975091350260913602809138029091EE
:103A80003902009709F44FC16F3F19F45F3F09F401
:103A90004AC1B0903702BB2009F4ECC040913A0211
:103AA000C816D90628F0F601E81BF90BCF0104C0AF
:103AB000809590958C0D9D1DFF24F394883C910575
:103AC00048F0F12C407F09F09FC085E392E00E940E
:103AD0007B0321C1842F807F09F044C0621312C090
:103AE000531310C0E1100EC04F70406140933A0272
:103AF00085E392E00E947B0380913A02D8011596FB
:103B00008C932EC0CD2819F12F3F11F43F3FF9F0CF
:103B1000FE2CE1101CC080916C0240913B0256E0EB
:103B2000841709F458C090E0589FF001599FF00D98
:103B30001124E45CFD4F6181261306C060813613B9
:103B400003C06281611103C001968770E9CFFE2C2A
:103B5000EE2009F421C180913A02816080933A02FB
:103B6000F12C1AC162130AC0531308C0E11006C039
:103B700080913A02D80115968C93B0C03D872E876C
:103B80008D859E850E94EC1C8823D1F1EE20C1F129
:103B900020913A02822F82958F7090E0029774F004
:103BA000809135029091360298878F831986DB8643
:103BB000CA862C87CE0107960E947B0386E0F80117
:103BC000A5E3B2E001900D928A95E1F70E94911C65
:103BD000FF24F394E1C03D872E878D859E850E944A
:103BE000AA1B292F22952F7030E0223031050CF0CE
:103BF000C7C09F7009F0C1C0805E883008F4CCC097
:103C0000C8010E947B03E4CF621314C0531312C097
:103C1000E11010C080913A02F8018583C8010E942A
:103C20007B0386E0E5E3F2E0DF011D928A95E9F788
:103C3000FB2CB2C03D872E878D859E850E94EC1C93
:103C40008823F1F2EE20E1F220913A02822F829550
:103C50008F7090E002970CF4B1CF80913502909173
:103C600036029A8389831B82DD82CC822E83CE0129
:103C70000196A2CFC816D90638F0C81AD90AB8ECEE
:103C8000CB16D10450F007C0809590958C0D9D1DEA
:103C9000883C910510F0F12C3EC0FE2CEE2009F47A
:103CA000AFCF621327C0531325C020913A0220FDE5
:103CB00018C0822F82958F70482F50E04115510512
:103CC00081F0F80125834F30510541F08F5F982F27
:103CD0009295907F822F8F70892B8583C8010E94D7
:103CE0007B0386E0F801A5E3B2E001900D928A958E
:103CF000E1F752C03D872E878D859E850E94EC1C82
:103D000081115CCF80913A02816080933A02C801B0
:103D10000E947B0341C0E5E3F2E086E0DF011D92F3
:103D20008A95E9F739C0EE2009F46ACF3D872E87DE
:103D30008D859E850E94EC1CF82E882309F460CFA7
:103D400086E0F801A5E3B2E001900D928A95E1F7D3
:103D500080913502909136020E94AA1B92959F7025
:103D6000963041F48091B60291E089278093B602A3
:103D70009093B5020E94911C0FC081113DCF0CC0E1
:103D8000243031050CF03CCF9F7009F435CFF80199
:103D90009581907F09F030CF8F2D61960FB6F89402
:103DA000DEBF0FBECDBFDF91CF911F910F91FF906E
:103DB000EF90DF90CF90BF9008951092AA021092DA
:103DC000A9020E94231BE2EEF2E086E0DF011D92D1
:103DD0008A95E9F71092E8021092B4020E94F6194F
:103DE00080E090E00E942D0D80E090E00C94170D93
:103DF00080910901882331F08091CF0287FF02C0B2
:103E00008EE101C086E0E7E1F2E0DF011D928A95D4
:103E1000E9F70C94DD1E882341F080959091E6012E
:103E200089238093E6010C94231B0895882339F09D
:103E30009091E601892B8093E6010C94231B089551
:103E4000882309F463C0823869F40E94430D81FF1E
:103E50005DC069E385E192E00E94601A0E94231B25
:103E600069E30EC0833891F40E94430D80FF4EC079
:103E700063E585E192E00E94601A0E94231B63E5DE
:103E800085E192E00E94351A0C94231B843869F472
:103E90000E94430D82FF3AC067E485E192E00E94F0
:103EA000601A0E94231B67E4EBCF9CEF980F913AB6
:103EB00010F4682FE5CF90E2980F983088F487705F
:103EC00021E030E0A90102C0440F551F8A95E2F7B6
:103ED000CA0180959091E60189238093E601D4CFB1
:103EE0009BE5980F933020F480E090E00C942D0D2A
:103EF00098E5980F973120F480E090E00C94170D2E
:103F0000803F20F00E9468180C94F61908958823C9
:103F100009F416C18238B1F40E94430D81FD10C12D
:103F200069E385E192E00E94601A0E94231B2FEF53
:103F300041EE54E0215040405040E1F700C0000005
:103F400069E317C08338D9F40E94430D80FDF8C09F
:103F500063E585E192E00E94601A0E94231B8FEFC7
:103F600091EE24E0815090402040E1F700C0000035
:103F700063E585E192E00E94351A0C94231B843896
:103F8000B1F40E94430D82FDDBC067E485E192E05D
:103F90000E94601A0E94231B4FEF51EE84E04150B3
:103FA00050408040E1F700C0000067E4E2CF9CEFA2
:103FB000980F913A30F4682F85E192E00E94601AE0
:103FC000DCCF90E2980F983080F4877021E030E0E9
:103FD000A90102C0440F551F8A95E2F7CA019091CA
:103FE000E601892B8093E601C8CF9BE5980F9330BB
:103FF00070F4853A29F0863A31F083E890E005C004
:1040000081E890E002C082E890E00C942D0D98E5E4
:10401000980F973108F08EC0883A09F445C0893A64
:1040200009F445C08A3A09F445C08B3A09F445C001
:104030008C3A09F445C08B3B09F445C08C3B09F42C
:1040400045C08D3A09F445C0803B09F445C08E3A1D
:1040500009F445C08F3A09F445C0813B09F445C0D5
:10406000823B09F445C0833B09F445C0843B09F415
:1040700045C0853B09F445C0863B09F445C0873BF4
:1040800009F445C0883B09F445C0893B09F445C0A3
:104090008D3B09F445C08E3B09F445C08A3B09F4C9
:1040A00045C080E090E044C082EE90E041C089EEDF
:1040B00090E03EC08AEE90E03BC085EB90E038C0D7
:1040C00086EB90E035C083EB90E032C084EB90E06B
:1040D0002FC087EB90E02CC08CEC90E029C08DECD9
:1040E00090E026C083E891E023C08AE891E020C0F8
:1040F00082E991E01DC084E991E01AC081E292E07A
:1041000017C083E292E014C084E292E011C085E21D
:1041100092E00EC086E292E00BC087E292E008C017
:104120008FE690E005C080E790E002C08AE292E06E
:104130000C94170D803F20F00E9432190C94F61950
:104140000895CF93C82F0E94871FC93349F42FEFDA
:1041500087EE93E0215080409040E1F700C00000DE
:104160008C2FCF910C94201F2091E4003091E5001A
:1041700095E64091EC00842F817040FF22C0809131
:10418000E80080FD1CC080910B02882391F08530EF
:1041900091F08091EB0085FD10C04091E4005091BA
:1041A000E5004217530729F39A01915011F784E073
:1041B000089582E0089583E0089581E0089580E005
:1041C00008954091E80042FFDECF089580910D02EE
:1041D00087FF11C08091E80082FD05C080910B022D
:1041E0008111F8CF11C08091E8008B770BC08091CE
:1041F0000B02882349F08091E80080FFF8CF80917E
:10420000E8008E778093E8000895982F973058F54E
:104210009093E900981739F07091EC002091ED002F
:104220005091F00003C0242F762F50E021FF19C0D9
:104230003091EB003E7F3093EB003091ED003D7FFD
:104240003093ED003091EB0031603093EB007093D0
:10425000EC002093ED005093F0002091EE0027FF3A
:1042600007C09F5FD3CF8F708093E90081E00895EE
:1042700080E0089520911302309114022617370729
:1042800048F06115710539F42091E8002E772093EC
:10429000E80001C0B90140E061157105A9F1209164
:1042A0000B02222309F443C0253009F442C02091B7
:1042B000E80023FD40C02091E80022FD32C020919B
:1042C000E80020FFE9CF4091F3002091F20030E0B8
:1042D000342BFC01CF016115710559F028303105EF
:1042E00040F481918093F100615071092F5F3F4F3D
:1042F000F1CF41E02830310509F040E02091E8009D
:104300002E772093E800C8CF4111C9CF0AC0809111
:104310000B02882361F0853061F08091E80083FD15
:104320000AC08091E80082FFF2CF80E0089582E029
:10433000089583E0089581E008958091FB02811142
:1043400007C080910B02843011F081E0089582E073
:104350000895CF93DF93CDB7DEB72A970FB6F894C1
:10436000DEBF0FBECDBF84B7877F84BF0FB6F89482
:10437000A895809160008861809360001092600031
:104380000FBE80E8809361001092610085B780685D
:1043900085BF85B7806885BF0E9427160E94461694
:1043A0008091E20084608093E200789480910B0217
:1043B0008823A1F01091E9001F709091EC00892FE3
:1043C000817090FD80E8182B1092E9008091E80040
:1043D00083FD0E940E131F701093E90082E084BDDC
:1043E00093E095BD9AEF97BD80936E000E94A11057
:1043F00090E090930B0180930A010E9488110E9423
:104400009711A1ECB2E0E4EDF2E01EE0F12EFE0E19
:1044100011921D92FE12FCCF8EE090E00E941925B1
:104420008093B7029093B802FC010E962BEF219374
:10443000E817F907E1F780E090E00E94B1248F3E91
:104440009E4F11F00E94A91A8CE090E00E94A324D4
:1044500090E0A0E0B0E08093B9029093BA02A093FC
:10446000BB02B093BC0289EA8093800089E080930C
:10447000810024982C983F988AB18F7C8AB96E98D5
:10448000479A8BB180638BB9769A8FE090E00E9457
:10449000AB246093BD027093BE028093BF029093E1
:1044A000C00267703FEF639FB00111247595679557
:1044B000759567957727709389006093880070934E
:1044C0008B0060938A0070938D0060938C000E9433
:1044D000181180E090E00E94B1248F3E9E4F11F0B1
:1044E0000E94A91A82E090E00E94A3248093EC022B
:1044F0000E94981A9093D0028093CF0283E090E0BC
:104500000E94A324682F70E080E090E00E947D1C50
:104510008CE091E09093D2028093D10299249394FD
:10452000EE24EA94CC24C394D12C50E1452E62E1D0
:10453000562E78E1A72EB12CE0E48E2E80910B024E
:10454000853009F043C080910B02843009F110924C
:10455000D3020FB6F894A895A09260000FBE809287
:10456000600083B7817F846083BF83B7816083BF2E
:104570007894889583B78E7F83BF0FB6F894A895FB
:1045800080916000886180936000109260000FBE8F
:1045900080910A02882391F20E94A11090E09093EA
:1045A0000B0180930A010E9488110E949711E4ED8B
:1045B000F2E01192FE12FDCF0E940B12E4EDF2E048
:1045C00081918111F2C0FE12FBCFB8CF0E940B1275
:1045D000EDEEF2E0A4EDB2E000E010E0702F6D919E
:1045E00021912627B1F180E090E030E0782EA901FA
:1045F000082E02C0559547950A94E2F740FF25C062
:1046000089837A83C60102C0880F991F7A94E2F7E2
:104610003C01862F90E08621972121E0892B09F427
:1046200020E02B830E94EA198160782F9D838C8380
:1046300049815A816B818D810E94410CF801E351BF
:10464000FD4F80816826608219C0019686309105F1
:1046500069F60F5F1F4F0E30110509F0BFCFEE82D4
:10466000EF8218860E94EA198160782F9A878987DD
:104670004E815F8168858A850E94410C8091E902A4
:104680009091EA020E94C0199C019091E80299233E
:1046900021F02431310508F47CC08091E4021091AE
:1046A000E50281110BC0111194C02091E602211185
:1046B00090C02091E70221118CC06BC09F3F19F080
:1046C0009F5F9093E802181624F40E940F198093BC
:1046D000E4028091E40287FF05C00E940F198195D2
:1046E0008093E402111624F40E940F198093E502CE
:1046F0008091E50287FF05C00E940F198195809384
:10470000E5023091E402332301F12091E5022223F6
:10471000E1F045EB3403C0011124892F990F990B67
:10472000009719F08093E40202C09092E40235EB06
:104730002303C0011124892F990F990B009719F0B9
:104740008093E50202C09092E5028091E60218167D
:1047500024F40E94ED188093E6028091E60287FF20
:1047600005C00E94ED1881958093E6028091E702D2
:10477000181624F40E94ED188093E7028091E70256
:1047800087FF05C00E94ED1881958093E7020E9483
:10479000F6191091EB020E94430D181709F4CECEC2
:1047A0000E94430D8093EB02C9CE49BC59BC09B4A9
:1047B00000FEFDCF8091D8008F7D8093D80080913E
:1047C000E00082608093E0008091E00081FDFCCFFA
:1047D000B5CE9F3F09F074CF7CCF1092B9008CE02A
:1047E0008093B8000895EF92FF920F931F93CF9399
:1047F000DF93182FEB011092BC0084EA8093BC0079
:104800000E94EA197C019091BC0097FD0EC0CF3F39
:104810008FEFD807C1F30E94EA198E199F098C17F0
:104820009D0788F38EEF9FEF2EC09091B900987F7F
:10483000983041F09091B900987F903119F08FEF46
:104840009FEF21C01093BB0084E88093BC000E94BE
:10485000EA198C019091BC0097FD0CC0CF3F8FEFFF
:10486000D807C1F30E94EA19801B910B8C179D0792
:1048700088F3D8CF8091B900887F883111F08034D7
:10488000F1F680E090E0DF91CF911F910F91FF90C2
:10489000EF9008950F931F93CF93DF93EB018093D5
:1048A000BB0084E88093BC000E94EA198C019091BF
:1048B000BC0097FD0EC0CF3F8FEFD807C1F30E9419
:1048C000EA19801B910B8C179D0788F38EEF9FEFE1
:1048D0000CC02091B900287F81E090E0283211F4CB
:1048E00080E090E0919581959109DF91CF911F91A2
:1048F0000F9108950F931F93CF93DF93EC0184E8FA
:104900008093BC000E94EA198C019091BC0097FD35
:104910000EC0CF3F8FEFD807C1F30E94EA19801B6A
:10492000910B8C179D0788F38EEF9FEF03C080914A
:10493000BB0090E0DF91CF911F910F91089584E922
:104940008093BC000895F999FECF92BD81BDF89A7D
:10495000992780B50895A6E1B0E044E050E00C94BA
:10496000DD24A8E1B0E042E050E00C94DD24262FE5
:10497000F999FECF92BD81BDF89A019700B4021655
:1049800039F01FBA20BD0FB6F894FA9AF99A0FBE03
:1049900008950396272F0E94B8240E94B724252F3C
:1049A0000E94B824242F0C94B8240196272F0E942B
:1049B000B8240C94B724DC01CB01FC01F999FECF9B
:1049C00006C0F2BDE1BDF89A319600B40D92415097
:1049D0005040B8F70895AA1BBB1B51E107C0AA1F9E
:1049E000BB1FA617B70710F0A61BB70B881F991F90
:1049F0005A95A9F780959095BC01CD01089597FB34
:104A0000072E16F4009407D077FD09D00E94EB24FE
:104A100007FC05D03EF4909581959F4F08957095C1
:104A200061957F4F0895EE0FFF1F0590F491E02DE3
:104A30000994CF93DF938230910510F482E090E0E7
:104A4000E091FE02F091FF0220E030E0C0E0D0E013
:104A5000309711F14081518148175907C0F048172C
:104A6000590761F482819381209719F09B838A838F
:104A70002BC09093FF028093FE0226C021153105C2
:104A800019F04217530718F49A01BE01DF01EF0134
:104A90000280F381E02DDCCF2115310509F1281BBF
:104AA000390B2430310590F412968D919C91139717
:104AB0006115710521F0FB019383828304C09093FB
:104AC000FF028093FE02FD01329644C0FD01E20F19
:104AD000F31F81939193225031092D933C933AC057
:104AE0002091FC023091FD02232B41F42091020120
:104AF000309103013093FD022093FC0220910001CC
:104B0000309101012115310541F42DB73EB7409197
:104B1000040150910501241B350BE091FC02F0913A
:104B2000FD02E217F307A0F42E1B3F0B28173907ED
:104B300078F0AC014E5F5F4F2417350748F04E0FF9
:104B40005F1F5093FD024093FC028193919302C03A
:104B5000E0E0F0E0CF01DF91CF9108950F931F9334
:104B6000CF93DF93009709F48CC0FC013297138236
:104B700012820091FE021091FF020115110581F4CD
:104B800020813181820F931F2091FC023091FD0220
:104B90002817390779F5F093FD02E093FC0271C004
:104BA000D80140E050E0AE17BF0750F412962D91A7
:104BB0003C911397AD012115310509F1D901F3CFCE
:104BC0009D01DA013383228360817181860F971FF3
:104BD0008217930769F4EC0128813981260F371F6A
:104BE0002E5F3F4F318320838A819B819383828311
:104BF000452B29F4F093FF02E093FE0242C0139686
:104C0000FC93EE931297ED01499159919E01240F67
:104C1000351FE217F30771F480819181840F951F8E
:104C2000029611969C938E938281938113969C9306
:104C30008E931297E0E0F0E0D80112968D919C914E
:104C40001397009719F0F8018C01F6CF8D919C9184
:104C500098012E5F3F4F820F931F2091FC023091ED
:104C6000FD022817390769F4309729F41092FF02E2
:104C70001092FE0202C0138212821093FD02009372
:104C8000FC02DF91CF911F910F910895AEE0B0E04B
:104C9000ECE4F6E20C9402290D891E898F89988D27
:104CA00026E02C831A83098397FF02C080E090E8F6
:104CB00001979E838D83AE01455E5F4F698D7A8D2E
:104CC000CE0101960E9476264D815E8157FD0AC075
:104CD0002F813885421753070CF49A01F801E20F2F
:104CE000F31F10822E96E4E00C941E29ACE0B0E095
:104CF000ECE7F6E20C94F4287C016B018A01FC01DC
:104D000017821682838181FFBDC1CE0101964C01BD
:104D1000F7019381F60193FD859193FF81916F01D6
:104D2000882309F4ABC1853239F493FD859193FF53
:104D300081916F01853229F4B70190E00E945E28CD
:104D4000E7CF512C312C20E02032A0F48B3269F0D7
:104D500030F4803259F0833269F420612CC08D32F6
:104D600039F0803339F4216026C02260246023C0EA
:104D7000286021C027FD27C030ED380F3A3078F485
:104D800026FF06C0FAE05F9E300D1124532E13C09B
:104D90008AE0389E300D1124332E20620CC08E32F2
:104DA00021F426FD6BC1206406C08C3611F4206806
:104DB00002C0883641F4F60193FD859193FF8191FD
:104DC0006F018111C1CF982F9F7D9554933028F4A6
:104DD0000C5F1F4FFFE3F9830DC0833631F083373B
:104DE00071F0833509F05BC022C0F80180818983AE
:104DF0000E5F1F4F44244394512C540115C03801B9
:104E0000F2E06F0E711CF801A080B18026FF03C094
:104E1000652D70E002C06FEF7FEFC5012C870E9407
:104E200053282C0183012C852F77222E17C038019F
:104E3000F2E06F0E711CF801A080B18026FF03C064
:104E4000652D70E002C06FEF7FEFC5012C870E94D7
:104E500048282C012C852068222E830123FC1BC0AE
:104E6000832D90E048165906B0F4B70180E290E037
:104E70000E945E283A94F4CFF50127FC859127FE25
:104E800081915F01B70190E00E945E2831103A9451
:104E9000F1E04F1A51084114510471F7E5C084360E
:104EA00011F0893639F5F80127FF07C0608171815B
:104EB000828193810C5F1F4F08C060817181072E32
:104EC000000C880B990B0E5F1F4F2F76722E97FFE9
:104ED00009C090958095709561957F4F8F4F9F4F3A
:104EE0002068722E2AE030E0A4010E949628A82EA5
:104EF000A81844C0853729F42F7EB22E2AE030E06E
:104F000025C0F22FF97FBF2E8F36C1F018F48835F7
:104F100079F0B4C0803719F0883721F0AFC02F2F57
:104F20002061B22EB4FE0DC08B2D8460B82E09C056
:104F300024FF0AC09F2F9660B92E06C028E030E0FB
:104F400005C020E130E002C020E132E0F801B7FE08
:104F500007C060817181828193810C5F1F4F06C001
:104F60006081718180E090E00E5F1F4FA4010E947C
:104F70009628A82EA818FB2DFF777F2E76FE0BC053
:104F8000372D3E7FA51450F474FE0AC072FC08C091
:104F9000372D3E7E05C0BA2C372D03C0BA2C01C078
:104FA000B52C34FF0DC0FE01EA0DF11D8081803368
:104FB00011F4397E09C032FF06C0B394B39404C023
:104FC000832F867809F0B39433FD13C030FF06C0F9
:104FD0005A2CB31418F4530C5B18B32CB31468F4A4
:104FE000B70180E290E03C870E945E28B3943C8544
:104FF000F5CFB31410F43B1801C0312C34FF12C0AC
:10500000B70180E390E03C870E945E283C8532FF38
:1050100017C031FD03C088E790E002C088E590E04A
:10502000B7010CC0832F867859F031FF02C08BE2A4
:1050300001C080E237FD8DE2B70190E00E945E285A
:10504000A51438F4B70180E390E00E945E285A94DA
:10505000F7CFAA94F401EA0DF11D8081B70190E029
:105060000E945E28A110F5CF332009F451CEB7017C
:1050700080E290E00E945E283A94F6CFF7018681A4
:10508000978102C08FEF9FEF2C96E2E10C941029DC
:10509000FC010590615070400110D8F78095909503
:1050A0008E0F9F1F0895FC01615070400190011008
:1050B000D8F7809590958E0F9F1F08950F931F939B
:1050C000CF93DF93FB01238121FD03C08FEF9FEF7F
:1050D00028C022FF16C0468157812481358142179E
:1050E000530744F4A081B1819D012F5F3F4F31836D
:1050F00020838C93268137812F5F3F4F3783268310
:1051000010C0EB01092F182F0084F185E02D0995BF
:10511000892BE1F68E819F8101969F838E83812F5B
:10512000902FDF91CF911F910F910895FA01AA2737
:10513000283051F1203181F1E8946F936E7F6E5FDA
:105140007F4F8F4F9F4FAF4FB1E03ED0B4E03CD088
:10515000670F781F891F9A1FA11D680F791F8A1F6B
:10516000911DA11D6A0F711D811D911DA11D20D0D2
:1051700009F468943F912AE0269F11243019305D8C
:105180003193DEF6CF010895462F4770405D41937D
:10519000B3E00FD0C9F7F6CF462F4F70405D4A33CA
:1051A00018F0495D31FD4052419302D0A9F7EACF92
:1051B000B4E0A6959795879577956795BA95C9F7C1
:1051C00000976105710508959B01AC010A2E0694B4
:1051D0005795479537952795BA95C9F7620F731F6D
:1051E000841F951FA01D08952F923F924F925F92AA
:1051F0006F927F928F929F92AF92BF92CF92DF92E7
:10520000EF92FF920F931F93CF93DF93CDB7DEB74B
:10521000CA1BDB0B0FB6F894DEBF0FBECDBF0994DF
:105220002A88398848885F846E847D848C849B8436
:10523000AA84B984C884DF80EE80FD800C811B8144
:10524000AA81B981CE0FD11D0FB6F894DEBF0FBE73
:0A525000CDBFED010895F894FFCFE3
:10525A0000000003200001DC000120008217211851
:10526A00F6178517BB170A25640A00000D010D02FF
:10527A000D030D040D050D000C010C020C030C04AA
:10528A000C050C000B010B020B030B040B050B00A6
:10529A000A010A020A030A040A050A0009010902A4
:1052AA00090309040905090008010802080308049A
:1052BA000805080007010702070307040705070096
:1052CA000601060206030604060506000501050294
:1052DA00050305040505050004010402040304048A
:1052EA000405040003010302030303040305030086
:1052FA000201020202030204020502000101010284
:10530A000103010401050100000100020003000479
:04531A00000500008A
:00000001FF
