:100000000C94E5020C9402030C9402030C9402037A
:100010000C9402030C9402030C9402030C9402034C
:100020000C9402030C9402030C94101A0C944C19B7
:100030000C94BD130C9402030C9402030C94020361
:100040000C9402030C9402030C9402030C9402031C
:100050000C9402030C944B130C9402030C940203B3
:100060000C9402030C9402030C9402030C940203FC
:100070000C9402030C9402030C9402030C940203EC
:100080000C9402030C9402030C9402030C940203DC
:100090000C9402030C9402030C9402030C940203CC
:1000A0000C9402030C9402030C9402037507750769
:1000B000B307B307FC071C08F009490A5E084A09A0
:1000C0005C095C092F0B320B350B380B3B0B3E0BDD
:1000D000410B0B0F100F1A0F0E0F130F180F160FE7
:1000E0005D178417241984172419CC17EF172419C6
:1000F000ED180019541B541B671B671B5D1B671B06
:10010000671B671B541B541B621B671B671B621B0F
:1001100029002B003900E100354100001E001400C9
:1001200004001D6134002F001F001A0016621B001E
:10013000E1040351200008000764060050002C6809
:100140002100150009681900E0004C00220017008A
:100150000A0005000000290050003502000011507F
:100160000000AA004F005600000001530000A90043
:1001700023001C000B0011000000A8002400180040
:100180000D78100052004B0025000C000E74360054
:1001900051002A00260012000F7237002F0028009D
:1001A0002700130033423871300030002A0031003C
:1001B0003400E500025100002900010001000100A7
:1001C000010000003A001E02200222020100260265
:1001D0003B001F02500023020100AA003C00520015
:1001E00051002F0001000100210230024F003000B9
:1001F000010001003E003102350035020000A90077
:10020000AC0001000000125000002F00AB00010004
:1002100000000100000030003F00520051002402A5
:10022000000001004000240021001E000100010028
:100230004100250022001F003700AE0042002600CA
:100240002300200027000100430025022E02310078
:100250002E002702440045000100010001000000BB
:100260000100010001000100010000000100010087
:10027000010001000100010001000100F200010085
:10028000010001000100F000F1000100F400010094
:1002900001000100F3000100F50001000100010070
:1002A00001000100000001000100010000001350E6
:1002B00000000100010001000000105000000100DA
:1002C0000100010001000100000001000100010027
:1002D00001000100A9000100010001000100AC00C3
:1002E000AA00B600010001000100AB00A800010057
:1002F00001000100010001000100010001000100F6
:10030000AE0001000100000035002B0801000100D3
:10031000010000001E08140804081D080100010067
:100320001F081A0816081B080100010020082E00EB
:100330000100060801000100210801000100190860
:10034000010001002208170801000100000001005F
:1003500001000100000001000000010001002D0269
:1003600000001050000001002308010001000100FE
:10037000000001002408010001000100010001004B
:100380002D00570001000100010001002D020100B5
:100390000100010001000100010001000100010055
:1003A0000100010001000100350001000100000012
:1003B000000000000000000000000000000000003D
:1003C000000000007E0F00D4FFFFFFC70000007890
:1003D00000000000000000002A2B280000000000A0
:1003E00000000000000000000000002900000000E4
:1003F0002C1E3420212224342627252E362D373852
:10040000271E1F202122232425263333362E37385A
:100410001F0405060708090A0B0C0D0E0F10111218
:10042000131415161718191A1B1C1D2F3130232DE4
:10043000350405060708090A0B0C0D0E0F101112E2
:10044000131415161718191A1B1C1D2F3130354C93
:1004500005010902A10185020901A100050919018F
:100460002905150025019505750181029501750382
:1004700081010501093009311581257F9502750833
:10048000810609381581257F950175088106050CBF
:100490000A38021581257F950175088106C0C005BF
:1004A000010980A10185031A81002A830016010039
:1004B000260300950175108100C0050C0901A101FA
:1004C00085041A01002A9C02160100269C0295014F
:1004D00075108100C005010906A1018505050719F0
:1004E000E029E71500250195087501810205071926
:1004F0000029EF1500250195F07501810205081905
:10050000012905950575019102950175039101C0B9
:1005100005010906A101050719E029E715002501D4
:10052000950875018102950175088101050719007B
:1005300029FF150026FF009506750881000508199A
:10054000012905950575019102950175039101C079
:1005500009023B00020100A0FA09040000010301A6
:100560000100092111010001224000070581030853
:10057000000A090401000103000000092111010023
:100580000122C0000705820320000A1201100100A9
:10059000000008EDFE07130100010203010403300F
:1005A00000000016034500720067006F0064006FD2
:1005B000007800200045005A00000008035A00534C
:1005C0000041000000040309040011241FBECFEF06
:1005D000DAE0DEBFCDBF12E0A0E0B1E0E2EFFDE483
:1005E00002C005900D92A632B107D9F723E0A6E22A
:1005F000B2E001C01D92A136B207E1F70E94871F49
:100600000C94F7260C9400006F927F928F929F9229
:10061000AF92BF92CF92DF92EF92FF920F931F9310
:10062000CF93DF93CDB7DEB760970FB6F894DEBFF8
:100630000FBECDBFFC01F080118183819481892B95
:1006400009F44AC71F3F21F40FEFF01609F444C71D
:100650006F0185E0DE01199601900D928A95E1F710
:10066000F601228189859A85222349F00E941A1574
:10067000082F682F89859A850E94931503C00E94D0
:100680006615082F26E0129FF001112434E5039F20
:10069000E00DF11D1124EF0DF11DEE0FFF1FE05FC6
:1006A000FE4F0591149109308DE5180709F040C0FF
:1006B000F60182818823E1F190911F0381E0890F87
:1006C0008770987F853020F4892B80931F0302C0A8
:1006D00090931F0380911F038770FFEF8F9FC001CE
:1006E00011249595879595958795992790938900DD
:1006F0008093880090938B0080938A0090938D0064
:1007000080938C0040911F0350912003609121033E
:10071000709122038FE090E00E9495226091D602B2
:100720007091D7028091D8029091D9020E94AC0EAC
:10073000F6018281882319F1033EFCE51F07C1F011
:1007400050F4013E3CE5130781F0023E8CE51807AA
:10075000B1F481E010C0043E9CE5190759F0053E54
:10076000ECE51E0761F484E006C010921B0305C08F
:1007700082E001C083E080931B030E94A00C17FF5E
:100780006DC0F6018281882309F468C08091DD0282
:10079000809326021092DD0280911B03813071F05C
:1007A00048F08230A1F08430C1F486EE0E94831EAE
:1007B00088E111C082EE0E94F61D0FC088E193E02F
:1007C0000E94660E88E193E00E94500E06C082EE01
:1007D0000E94F61D87E50E94831E8FE39CE9019726
:1007E000F1F700C000007801E894F7F86CE0A62E5D
:1007F000B12CC7010A2C02C0969587950A94E2F79E
:10080000282F2F7041F0822F90E02A3010F44D965F
:1008100004C0069702C087E290E00E94831E94E025
:10082000A91AB108ECEFAE16EFEFBE0611F78091F2
:100830001B03813039F040F0823031F0843051F4C4
:1008400088E206C08CE204C082EE0E948F1D02C0C6
:100850000E94831E809126028093DD02F601828130
:10086000882309F420C10436110509F403C190F46A
:100870000B32110509F4FEC0C8010C32110528F431
:100880000497849708F00FC1F5C08D970C9708F076
:100890000AC1F0C00931FCE51F0739F178F40731CE
:1008A0003CE51307C1F008318CE5180709F0FBC0DF
:1008B0008091070190910801059712C00B319CE5CA
:1008C000190709F4CEC008F4C8C00C31FCE51F07B5
:1008D00009F4CBC0E8C0809107019091080105960A
:1008E0009093080180930701E1C0809108018F93E4
:1008F000809107018F9386E191E09F938F931F92E0
:1009000088E08F939E012F5F3F4F79013F932F9394
:100910000E9412240FB6F894DEBF0FBECDBF5AE07E
:10092000652EF7018081882309F4C0C0813009F069
:1009300051C08181813059F45701F2E0AF0EB11CF2
:10094000F701F2808F2D0E94F61D8F2D14C082308A
:1009500051F45701F2E0AF0EB11CF70182810E9401
:10096000F61D750176C0833049F45701F2E0AF0EF1
:10097000B11CF70182810E948F1DF3CF843021F0DA
:10098000FFEFEF1AFF0A65C0F7012281C701029647
:100990007C0180E090E030E0205331092A303105BD
:1009A00070F4689EA001699E500D1124CA01820F47
:1009B000931FEFEFEE1AFE0AF7012081ECCF0097AC
:1009C00009F447C0EFE9FFE03197F1F700C00000FC
:1009D0000197F5CFE82FF0E0E053FC4F7490282FFB
:1009E00026952695269530E0F901E054FC4F849039
:1009F0008770912C082E02C0959487940A94E2F790
:100A0000F1E08F229924F901E055FC4FA490B12C1C
:100A100002C0B594A7948A95E2F721E0A222BB24F4
:100A20008114910419F081EE0E94F61DA114B10405
:100A300019F086EE0E94F61D872D0E94831EAB28BA
:100A400019F086EE0E948F1D892819F081EE0E9410
:100A50008F1D3FEFE31AF30A64CF809106018111E5
:100A600004C081E08093060121C0109206010E941B
:100A70007C0E1CC00E947C0E80910601882309F424
:100A80003DC18091DD02811139C10E949B13909379
:100A90002A0280932902109328020093270282E001
:100AA0000E94F41519C50E947C0E28C1F6018281AE
:100AB000882309F479C110922B020230FCE51F074C
:100AC00008F45CC106312CE5120738F098012A5F62
:100AD0003C452730310508F051C10E9449149093DC
:100AE0003203809331030F303CE5130709F4CFC084
:100AF00008F042C008309CE5190709F4A8C0F0F4DA
:100B00000430FCE51F0709F490C068F402303CE5AE
:100B1000130709F486C003301C4509F0DFC080913B
:100B200031038260D9C006309CE5190709F487C0FB
:100B300008F089C0809131038860CEC00B30FCE59D
:100B40001F0709F495C068F409303CE5130709F460
:100B500082C00A301C4509F0C1C080913103886011
:100B600080C00D309CE5190709F486C008F087C0E5
:100B7000809131038D7FB0C00A3FFCE51F0709F467
:100B800057C050F502313CE5130709F488C068F4FA
:100B900000319CE5190709F47EC001311C4509F0BC
:100BA0009DC0809131038F7B97C00431FCE51F0706
:100BB00009F487C008F479C005311C4509F08EC0DE
:100BC0008091310382FB222720F991E0922790FB4C
:100BD00082F990FB83F980C00D3F8CE5180709F47A
:100BE00052C058F40B3FECE51E0729F10C3F1C45A1
:100BF00009F074C08091320360C00F3F2CE51207EA
:100C000009F458C080F101151D4509F067C08091B5
:100C10003203982F909591708E7F892B90FB81F9EC
:100C20004DC080913103816057C08091310319C05C
:100C3000809132031BC08091320382603FC080915B
:100C40003103806149C080913103806245C0809149
:100C50003103806441C00E947A1D80913103806815
:100C60003BC0846039C0809132038260816026C0BD
:100C7000809131038E7F30C08091310319C0809103
:100C80003103877F29C0809132038D7F17C0809107
:100C900031038F7E21C0809131038F7D1DC00E9462
:100CA0007A1D809131038F7717C080913103877F40
:100CB0008B7F12C0809132038D7F8E7F80933203B1
:100CC0000DC00E947A1D8091310387FB222720F9F5
:100CD00091E0922790FB87F9809331036091310373
:100CE0001091320384E090E00E948322612F81E220
:100CF00090E00E9483220E947A1DEEC3033FFCE530
:100D00001F0739F426E241EE60EEC6010E94201072
:100D1000E3C3043F2CE51207C0F4083D3CE513078C
:100D200021F427E245EE65EEF0CF093D8CE518078A
:100D300019F428E241E0F7CF073D9CE5190709F0D7
:100D4000B5CE26E241EE61EEE0CF053FECE51E07B1
:100D500021F426E241EE62EED8CF053FFCE51F0705
:100D600020F427E245EE64EED0CF063F2CE51207D3
:100D700009F09CCE27E245EE66EEC7CF06313CE592
:100D8000130711F59091DD029A7A81E009F480E071
:100D900080932C02811102C069E201C065E387E4FF
:100DA00092E00E9411140DC006311C4509F054C098
:100DB00080912C0281118EC369E287E492E00E9447
:100DC000E6130E94D41488C301159CE5190739F075
:100DD0000E3D1C4509F040C00E945A147DC30E947C
:100DE0007A1DFFEF04E31CE0F15000401040E1F7F2
:100DF00000C00000F89481E08093E00080E28093DE
:100E0000D8001092C9008FE19EE40197F1F700C06D
:100E100000001DBA109268001CBC10BE1FBA1092D0
:100E20007A0010926E0010926F0010927100109272
:100E300072001092C9001092BC0014B817B81AB80A
:100E40001DB810BA1092BC0015B818B81BB81EB85F
:100E500011BA0C94003F40C3F60100811181882330
:100E600049F0C8010E941A15F82E682FC8010E9487
:100E7000931504C0C8010E946615F82EB8018F2D85
:100E80000E94A60C182F382FF601258122952F706D
:100E9000028101111092DC028091DA028770A9F0C0
:100EA000002399F080E2810F883078F082E02F876C
:100EB000388B9E870E94F4158091DA028770EE24A9
:100EC000E3942F8538899E858111E12CA92EA29467
:100ED0004FE0A422B12CFCE0AF16B10408F0D9C257
:100EE000F501EA5AFF4F0C94DF22892F807F9F7013
:100EF000F92E882319F0F29480EFF8220023B9F03C
:100F0000FF2009F457C280E2810F883010F03111C0
:100F100006C09091DD02F92AF092DD0205C09091A1
:100F2000DC02F92AF092DC020E94D41443C2812F21
:100F3000388B0E948F1D3889FF2009F4AAC2105EE9
:100F4000F094183010F0311106C09091DD02F922B2
:100F5000F092DD0205C09091DC02F922F092DC02F1
:100F60000E94D41496C2492F407F892F8F7040323F
:100F700011F08295807F332319F03130E9F025C0DC
:100F8000002381F03091DE02222351F0213041F420
:100F9000982F932B391709F47CC29093DE0279C203
:100FA000832B17C0222319F0213009F472C28E87D7
:100FB0000E94CE148E851DC0002321F0223008F03F
:100FC00068C207C0211165C214C0002329F0211195
:100FD000F1C10E948B1B5DC2222359F0193309F025
:100FE000FBC10FEF27EE33E0015020403040E1F726
:100FF000F1C10E94801B4DC2292F26952695237092
:1010000030E02115310521F02130310559F041C280
:10101000002319F0812F937002C080E090E00E94BD
:101020007E0C40C2002319F0812F937002C080E033
:1010300090E00E94680C36C20023F9F0153F51F091
:10104000163F71F0143FA9F480912D0290912E0269
:1010500081600BC080912D0290912E02826005C0AC
:1010600080912D0290912E02846090932E028093A5
:101070002D02812F0E94E3121EC0153F51F0163F32
:1010800071F0143FA9F480912D0290912E028E7F71
:101090000BC080912D0290912E028D7F05C0809112
:1010A0002D0290912E028B7F90932E0280932D0221
:1010B000812F0E9419120E94A713F4C1892F8370F7
:1010C00009F070C00111ECC1812F8295869587705F
:1010D000880F880F412F4F7050E060E070E04A01A8
:1010E0005B01082E04C0880C991CAA1CBB1C0A9426
:1010F000D2F714FF12C00FE010E020E030E004C08F
:10110000000F111F221F331F8A95D2F7B901A801C2
:10111000409550956095709503C040E050E0BA014D
:10112000969596959370892F90E08230910529F1DC
:1011300083309105C9F00091DF021091E002209107
:10114000E1023091E202019759F0482959296A29B0
:101150007B29CB01BA0160237123822393230AC028
:10116000802A912AA22AB32ACB01BA0168297929B7
:101170008A299B290E942E1693C1482959296A2938
:101180007B298091DF029091E002A091E102B09171
:10119000E2028A019B01082719272A273B27C90158
:1011A000B801E8CF002319F0892F817001C086951E
:1011B000882309F475C1812F829586958770880FE1
:1011C000880F412F4F7050E060E070E04A015B01F2
:1011D000082E04C0880C991CAA1CBB1C0A94D2F7C8
:1011E00014FF12C00FE010E020E030E004C0000F58
:1011F000111F221F331F8A95D2F7B901A80140950C
:1012000050956095709503C040E050E0BA01969506
:1012100096959370892F90E082309105E9F08330A4
:10122000910579F10091D6021091D7022091D80250
:101230003091D902019759F0482959296A297B2907
:10124000CB01BA01602371238223932320C0802A1B
:10125000912AA22AB32A15C0482959296A297B292B
:101260008091D6029091D702A091D802B091D90274
:101270008A019B01082719272A273B27C901B801A2
:1012800006C0CB01BA01682979298A299B290E94C5
:10129000C31506C19F70F92E002339F0892F0E94D3
:1012A0000D16812F0E948B1BFBC0812F0E94801B7B
:1012B0008F2D0E94CF15F4C0812F323FC9F128F441
:1012C000303F49F0313F79F170C0333FC1F1343FD5
:1012D00009F44DC06AC0002311F12111DAC0292F91
:1012E0002F7181E090E0A0E0B0E0AC01BD0104C04E
:1012F000440F551F661F771F2A95D2F78091D6029B
:101300009091D702A091D802B091D9028A019B0195
:10131000082719272A273B27C901B80125C02230F1
:1013200008F0B7C0DCCF002329F0892F8F712EC0C1
:101330000023D9F3892F8F710E94CF15AAC00023F3
:1013400081F0292F2F7181E090E0A0E0B0E0BC0196
:10135000CD0104C0660F771F881F991F2A95D2F709
:1013600003C060E070E0CB010E94C31592C000236F
:1013700081F0192F1F71812F0E940D1628E0129FF6
:10138000C001112483608093DA02812F0E940D1620
:1013900080C081E02F870E94F4152F85223008F449
:1013A00078C082E00E94F41574C0002339F0222333
:1013B00009F4BBCF812F0E94F61D6BC0222309F4D4
:1013C000B9CF893349F43FEF87EE93E03150804045
:1013D0009040E1F700C00000812F0E948F1D59C08E
:1013E000323FB1F028F4303F49F0313FF9F028C0E6
:1013F000343FB9F058F0353F71F022C0002309F4B2
:1014000051C09091180381E0892708C081E0082726
:101410000093180347C0011145C081E08093180371
:1014200041C001113FC0109218033CC0002329F0B5
:1014300080911703882329F329C0222311F332C096
:10144000809117032223C1F0882341F09091180363
:1014500081E089278093180310921703812F0023BE
:1014600019F00E94F61D1EC00E948F1D86E0F60135
:1014700011928A95E9F716C08823A1F0011112C0D4
:101480009091180381E08927809318031092170325
:1014900009C0F8E0AF1AB10804E0A016B10410F4D6
:1014A0000E94940CEE20C1F08091DA0280FD14C0FD
:1014B000F60112828595859585950E940D16C601C7
:1014C0000E9404038091DA028595859585950E9496
:1014D000CF1502C065E371CC60960FB6F894DEBFFD
:1014E0000FBECDBFDF91CF911F910F91FF90EF9075
:1014F000DF90CF90BF90AF909F908F907F906F9034
:1015000008959091310392FF0DC0282F2871283043
:1015100019F4877F846006C0282F2471243011F4C9
:101520008B7F886093FF0DC0282F2871283119F414
:10153000877E846106C0282F2471243111F48B7EAC
:1015400088612091320320FF0DC0382F3871383068
:1015500019F4877F816006C0382F3171313011F462
:101560008E7F886021FF0DC0282F2871283119F443
:10157000877E816106C0282F2171213111F48E7E72
:10158000886194FD877E08959C013A9521153F411D
:1015900038F5DC01AA27B270AC01442754709C01D5
:1015A0002227387094FF0FC090FF02C080E101C075
:1015B00080E0AB2B09F08062452B09F08064232B7F
:1015C00069F080680BC0892F8170AB2B09F08260B5
:1015D000452B09F08460232B09F08860FB010994F6
:1015E0000895CF93E82F873080F580910A0190917C
:1015F0000B01892B09F047C0CE2F64E670E080E430
:101600000E94BF2190930B0180930A01892BD1F492
:1016100064E670E082E10E94162290930B018093B1
:101620000A01892B79F481E090E001C0880FCA9506
:10163000EAF764E670E080950E94162290930B0111
:1016400080930A01CF910C946B2290E0FC013797B4
:10165000E730F105C0F4EE59FF4F0C94DF22209AD9
:10166000289811C0219A29980EC0229A2A980BC056
:10167000239A2B9808C0529A5A9805C0539A5B989F
:1016800002C03E9A4698CF910895CF93873008F0D4
:101690003FC080910A0190910B01892B09F041C054
:1016A00064E670E080E40E94BF2190930B01809378
:1016B0000A01892B11F0C0E027C064E670E083E1E5
:1016C0000E94162290930B0180930A01892B99F7AF
:1016D00064E670E081E40E94BF2190930B01809347
:1016E0000A01892B41F784E690E00E94462297FF89
:1016F00005C090930B0180930A01DDCFC82FC095E0
:1017000010920B0110920A010E946B228C2F0AC0CA
:101710009FB18FB1807F869586959370892B809538
:1017200001C080E0CF910895EF92FF920F931F9335
:10173000CF93DF93CDB7DEB767970FB6F894DEBFD0
:101740000FBECDBF4B8B5C8B6D8B7E8B8F8B0E89D1
:101750001F8901151105C1F15F3F11F44F3FA1F140
:10176000E42EF12CA1E0B0E0042E01C0AA0F0A94EF
:10177000EAF7852F90E0662319F02091180306C040
:101780009C01275C3D4FF90120812A232223A9F0E7
:1017900046E0489F9001499F300D1124F701E20F68
:1017A000F31FEE0FFF1FE45BFE4F40815181FC01F0
:1017B000E75CFD4F9081A92B06C0FC01E75CFD4F63
:1017C000A0958081A823A08386E0FE013D96DF01DD
:1017D000982F1D929A95E9F74D875E876F87198B31
:1017E000088BDE01179601900D928A95E1F7CE01E4
:1017F00007960E94951B811137C086E0FE0137963F
:10180000DE01119601900D928A95E1F7FF81E8853E
:101810006A857B856115710539F1EF3F11F4FF3F52
:1018200019F120916D0230E0C90101968770992766
:1018300040919E0250E08417950779F1F983EA837D
:101840007D836C8396E0929FD001939FB00D11240D
:10185000A259BD4FFE01319601900D929A95E1F784
:1018600080936D020E94381616E080919E0290913E
:101870006D02891701F1189FC001112482599D4FF3
:101880000E94951B8823B9F080919E0290E00196FA
:101890008770992780939E02E8CF0E947A1D10924C
:1018A0006D0210929E02E7E6F2E086E0DF011D92F3
:1018B0008A95E9F7D9CF67960FB6F894DEBF0FBEC9
:1018C000CDBFDF91CF911F910F91FF90EF900895C1
:1018D00020913702309138028217930771F090936C
:1018E000380280933702E0913303F091340330974C
:1018F00021F00084F185E02D0994089520913502AE
:10190000309136028217930771F0909336028093DC
:101910003502E0913303F0913403309721F00680D3
:10192000F781E02D09940895E0913303F091340399
:10193000309721F00190F081E02D099480E0089526
:1019400060911B038CE090E00C948322CF93DF9393
:1019500026E0729FF001112444E5849FE00DF11D03
:101960001124E60FF11DEE0FFF1FE05FFE4FC59142
:10197000D491CE01C238D10569F1B0F4C133D1059B
:1019800009F475C048F4C932D10509F469C0CA32F6
:10199000D10509F473C085C0C533D10509F459C018
:1019A000C933D105B9F07DC0C33ED10571F138F41A
:1019B000C03ED105B1F0C23ED10511F172C0C63EA4
:1019C000D105B9F1C73ED105C9F1C43ED10509F031
:1019D00068C024C04091310340FD5DC041FD5BC043
:1019E00060C02091310320FD50C02091320320FFC0
:1019F00054C18091310384FD4EC183EE90E04DC10E
:101A00002091310322FF49C1F4CF8091310382FD3F
:101A10003FC08091320380FD3EC0EBCF2091320366
:101A200021FF3BC18091310384FD35C187EE90E0F9
:101A300034C12091310323FF30C1F4CF80913103B1
:101A400083FD2CC08091320381FFECCF84EE90E0C7
:101A500024C12091310325FF20C189E290E01DC1FE
:101A60002091310325FF19C185E390E016C1209133
:101A7000310326FF12C18AE290E00FC120913103A9
:101A800026FF0BC181E390E008C189E390E005C126
:101A900082EE90E002C180EE90E0FFC086EE90E022
:101AA000FCC0C11552E5D50708F074C0C11521E589
:101AB000D20728F09C2F8827816F906AEEC0C83E1D
:101AC000D10570F5C03ED10508F0E7C0C83AD10590
:101AD000B8F4C53AD10550F08C2F855AE82FF0E0C4
:101AE000E55EFE4F808190E09064D7C0C130D105A3
:101AF00009F4D3C008F4CFC0249708F4CCC0CDC0FB
:101B0000CF3BD10508F0C7C08C2F885AE82FF0E0F2
:101B1000EE0FFF1FE25EFE4F808191819464BDC095
:101B2000C11540E2D40760F4C11551E0D50708F0B3
:101B3000B4C0C03FD10508F4AEC0CE019065ADC0C1
:101B4000C11580E4D80708F4A6C0C11590E5D907EF
:101B500020F4CE019F70906AA0C04C2F437081E0AA
:101B600090E002C0880F991F4A95E2F79C68AE0189
:101B7000F4E056954795FA95E1F74370942B2C2F96
:101B80002F702695269550E2259F90011124822BD7
:101B9000932B83C0C11526E5D207E8F5C11545E5AD
:101BA000D40748F08C2F0E94810A8F7190E0982F03
:101BB0008827906272C0C11554E5D50728F09C2F84
:101BC0008827846F906A69C08C2F86958695AE01B0
:101BD00043705527C115D34578F490E2899F900151
:101BE000112481E090E002C0880F991F4A95E2F726
:101BF000822B932B9C6851C090E2899F9001112405
:101C000081E090E002C0880F991F4A95E2F7822B8D
:101C1000932B9A6842C0C1152AE5D20780F5C115F9
:101C200049E5D40718F18C2F8F700E94810A9E011C
:101C300094E0369527959A95E1F72F7030E0322F92
:101C400022273069A901482B0FC0CE01905681157B
:101C5000904208F58D2F8F710E94810A9E013327D3
:101C600030628F71A901582BCA0117C0C11558E500
:101C7000D50788F09C2F8827806F906A0EC0C11509
:101C80008BE5D80740F0C1159CE5D907F0F6CE01E9
:101C90009927906602C080E090E0DF91CF9108958F
:101CA000CF93DF93EC010E948F1DCE01805E9109DE
:101CB000089710F0209719F460E87BE102C06BE60A
:101CC0007BE1CE01DF91CF910C94C40ACF93DF93D7
:101CD000EC01805E9109089710F0209719F46BE8E9
:101CE0007BE102C066E77BE1CE010E94C40A8C2F33
:101CF000DF91CF910C94F61DCF93DF938091270253
:101D000090912802892B29F18091290290912A0231
:101D10000E9471132091070130910801281739079B
:101D200060F4C0912702D0912802D260CE010E94B7
:101D3000660ECE010E94500E04C0809127020E94C0
:101D4000831E10922A0210922902109228021092E9
:101D50002702DF91CF910895CF92DF92EF92FF9209
:101D60000F931F936C01EE24FF24C114D104E104EE
:101D7000F10411F0E0E103C06B017C01E0E03327E6
:101D80002F2D1E2D0D2D011511052105310519F0E1
:101D9000E85F6801790197018601F4E0369527959F
:101DA00017950795FA95D1F701151105210531050C
:101DB00019F0EC5F680179019701860152E03695D0
:101DC0002795179507955A95D1F701151105210506
:101DD000310519F0EE5F68017901970186013695AA
:101DE000279517950795012B022B032B09F0EF5F21
:101DF00056985E9825982D9826982E9827982F9873
:101E00000E2F10E0F8013197E730F105A8F4E759FB
:101E1000FF4F0C94DF22259A2D9A0EC0259A2D9AF9
:101E2000269A2E9A09C0259A2D9A04C0259A2D9A91
:101E3000269A2E9A279A2F9A1F910F91FF90EF9032
:101E4000DF90CF90089580E290E090930B01809313
:101E50000A018091320281110EC00E94B92181E0F5
:101E6000809332022FEF83ED90E321508040904029
:101E7000E1F700C0000064E670E080E40E94BF214A
:101E800090930B0180930A01892B09F04EC064E600
:101E900070E080E00E94162290930B0180930A016B
:101EA000892B09F042C064E670E080E00E941622AF
:101EB00090930B0180930A01892BB9F564E670E0D9
:101EC0008FE30E94162290930B0180930A01892BC5
:101ED00061F50E946B2264E670E080E40E94BF21FD
:101EE00090930B0180930A01892BF9F464E670E06A
:101EF0008CE00E94162290930B0180930A01892B9B
:101F0000A1F464E670E080E00E94162290930B0139
:101F100080930A01892B49F464E670E08FE30E9404
:101F2000162290930B0180930A010E946B228091EC
:101F30000A010895CF93DF9356985E9825982D98BF
:101F400026982E9827982F98C8E8D0E08FEF90E039
:101F500099838883AAE8B0E011969C938E93ECE86D
:101F6000F0E091838083259A2D9A2FEF80E792E00D
:101F7000215080409040E1F700C00000269A2E9A40
:101F80002FEF80E792E0215080409040E1F700C0C1
:101F90000000279A2F9A2FEF80E792E0215080408F
:101FA0009040E1F700C0000025982D982FEF80E7C2
:101FB00092E0215080409040E1F700C00000269858
:101FC0002E982FEF80E792E0215080409040E1F77B
:101FD00000C0000027982F9880911F0387702FEF73
:101FE000829FC0011124959587959595879599278E
:101FF0009983888311969C938E93918380835698BE
:102000005E9825982D9826982E9827982F98DF91DE
:10201000CF91089584B1807F84B985B1807F85B9DF
:102020008AB1837F8AB98BB1837F8BB93E984698FA
:10203000089580B38C7080BB81B3836F81BB08959A
:102040000F931F93CF93DF93C62FD42F022FFC0142
:1020500082818823C9F060932B020E949B13909386
:1020600034028093330280E28C0F883008F050C035
:10207000C77081E001C0880FCA95EAF7DF91CF9160
:102080001F910F910C948B1B10912B02161330C0D3
:1020900080913302909134020E947113883C910523
:1020A00038F5C0E2CD0F1D17B9F080E2810F8830FE
:1020B00040F4177081E001C0880F1A95EAF70E947A
:1020C000801BC83048F481E09D2F977001C0880FB5
:1020D0009A95EAF70E948B1B802F0E94831EC830BE
:1020E000B8F4D77081E001C0880FDA95EAF70AC02A
:1020F00080E28C0F883060F4C77081E001C0880FE7
:10210000CA95EAF7DF91CF911F910F910C94801B34
:10211000DF91CF911F910F9108959F92AF92BF923F
:10212000CF92DF92EF92FF920F931F93CF93DF93A3
:1021300080910A0190910B01892B91F080913102DD
:102140008F5F8093310281110BC00E94230F90E0BA
:1021500090930B0180930A01892B11F40E949A0F2E
:1021600003E213E02AE2E22E23E0F22E6801C0E04F
:10217000912C97E0A92EAC0E8C2F0E94F10A8A2D8B
:102180000E94F10A8C2F0E94450BF601908198174E
:1021900021F08083BB24B39401C0B12C8A2D0E940E
:1021A000450BF7019081981719F0808381E001C0F9
:1021B00080E0B82A9B280E940A10CF5FFFEFCF1A59
:1021C000DF0A8FEFE81AF80AC73099F60E949B13CE
:1021D0006AEF70E00E94B7229C01682F8091300264
:1021E0008823E9F110923002E0911903F0911A036B
:1021F000DF011E9690E07BEF8AEFE82EF12C8081C4
:102200008B3FA9F0482F50E0681728F0E901C41B64
:10221000D50BAE0106C06701C41AD50AA601420F4C
:10222000531F4E31510514F0708301C091E0319677
:10223000EA17FB0721F790933002911002C0911129
:1022400010C010922F02A0911903B0911A0390911F
:102250003002E6E3F3E080E03EE03E0F07C091107D
:10226000F0CF80912F028111ECCF16C0E8012991A7
:102270008E014081421741F04C914B3F21F46C9309
:10228000208391E001C081E0119631963E13EECF9C
:102290009093300280932F02892DDF91CF911F916F
:1022A0000F91FF90EF90DF90CF90BF90AF909F90F5
:1022B00008958091EA020895CF93DF9300D01F9292
:1022C000CDB7DEB790910D03943019F589837B83E8
:1022D0006A8382E08093E9008FEF9091E80081505B
:1022E00095FD06C095ED9A95F1F700008111F5CFA7
:1022F0008091E80085FF0DC040E050E063E070E0B1
:10230000CE0101960E9442168091E8008E7780935C
:10231000E8000F900F900F90DF91CF910895CF9329
:10232000DF93EC010E947F1F823011F0843031F482
:10233000BE0184E0DF91CF910C945C11DF91CF91CD
:102340000895BC016058710983E00C945C11CF932F
:10235000DF93EC010E947F1F823011F08430F9F48A
:1023600082E08093E9009FEF8091E800915085FD25
:1023700006C085ED8A95F1F700009111F5CF8091A7
:10238000E80085FF0CC040E050E066E070E0CE0160
:102390000E9442168091E8008E778093E800DF91DA
:1023A000CF910895CF93DF93EC010E947F1F82307D
:1023B00011F08430D9F580910901882339F080919A
:1023C000310387FF03C060E282E002C068E081E081
:1023D0008093E9008FEF9091E800815095FD06C051
:1023E00095ED9A95F1F700008111F5CF8091E80005
:1023F00085FF1CC080910901811105C040E050E0BB
:1024000068E070E003C070E040E050E0CE010E9460
:1024100042168091E8008E778093E80080E2FE010A
:10242000ABEEB2E001900D928A95E1F7DF91CF918A
:102430000895803F39F48091470387FF6CC0109264
:10244000470369C0813F29F4809147031816BCF304
:1024500062C090914603823F29F497FF5CC01092BE
:10246000460359C0833F19F41916CCF354C0893F71
:1024700041F48091480318160CF04DC010924803A7
:102480004AC08A3F29F48091480387FF44C0F6CFB1
:102490008B3F39F48091490387FF3DC01092490377
:1024A0003AC08C3F29F4809149031816BCF333C01D
:1024B000843F21F4809145038E7F17C0853F21F42E
:1024C000809145038D7F11C0863F21F480914503A3
:1024D0008B7F0BC0873F21F480914503877F05C028
:1024E000883F31F4809145038F7E8093450313C06C
:1024F0008D3F21F48091E7028E7F0BC08E3F21F447
:102500008091E7028D7F05C08F3F29F48091E7021B
:102510008B7F8093E7028091460381110EC08091EA
:10252000470381110AC080914803811106C0809140
:102530004903811102C010924A0308958091E70275
:1025400080FD16C081FD16C082FD18C080914A032F
:10255000882391F0883290F428E0829FC0011124F2
:1025600068E270E00E94CB22862F672B29F007C01B
:1025700082E0089584E0089581E0089588E0089558
:102580008091E70280FD17C081FD17C082FD19C050
:1025900080914A03882399F08C3398F423E2829F38
:1025A000C00111246CE370E00E94CB22862F672BC0
:1025B00049F481E0089588E0089581E1089585E077
:1025C000089583E20895803F21F40E94C01281950E
:1025D00004C0813F29F40E94C012809347030895EC
:1025E000823F21F40E94C012819504C0833F29F4E8
:1025F0000E94C012809346030895893F19F40E94F7
:102600009E1205C08A3F31F40E949E1281958093EC
:10261000480308958B3F21F40E949E12819504C0C7
:102620008C3F29F40E949E12809349030895843FB1
:1026300021F480914503816017C0853F21F480918A
:102640004503826011C0863F21F480914503846078
:102650000BC0873F21F480914503886005C0883F07
:1026600031F48091450380618093450308958D3F47
:1026700021F48091E70281600BC08E3F21F48091AC
:10268000E702826005C08F3F29F48091E7028460F1
:102690008093E702089578941F920F920FB60F92DD
:1026A00011248F939F93AF93BF938091E3029091F6
:1026B000E402A091E502B091E6020196A11DB11DD0
:1026C0008093E3029093E402A093E502B093E602C4
:1026D000BF91AF919F918F910F900FBE0F901F9060
:1026E0001895CF92DF92EF92FF920F931F932FB71F
:1026F000F8944091E3025091E4026091E5027091F8
:10270000E6022FBF6A017B01EE24FF248C0120E04A
:1027100030E0C016D106E206F30610F4415051092C
:102720009A01281B390BC9011F910F91FF90EF905F
:10273000DF90CF9008952FB7F8948091E3029091A5
:10274000E402A091E502B091E6022FBF0895E09166
:102750003303F0913403309749F082E080934403CF
:102760000480F581E02D84E493E009950E949B1399
:1027700090934C0380934B0308951F920F920FB6D2
:102780000F9211248F939F93AF93BF938091350342
:10279000811113C08091E3029091E402A091E502BF
:1027A000B091E6024196A11DB11D8093E302909382
:1027B000E402A093E502B093E602BF91AF919F912E
:1027C0008F910F900FBE0F901F90189520910901C7
:1027D000222321F02091310327FD04C0FC01329611
:1027E000089619C0262F2695269526952E31C0F4D9
:1027F000FC01E20FF11D677081E090E001C0880FDD
:102800006A95EAF7809592818923828308953196AB
:10281000E817F90729F020812613F9CF1082F7CFA6
:10282000089520910901222321F02091310327FDF1
:1028300005C0FC0132962FEF30E019C0262F2695F7
:10284000269526952E3120F5FC01E20FF11D6770CB
:1028500081E090E001C0880F6A95EAF79281892BA8
:10286000828308952F3F39F03F5F363041F0419128
:102870004613F8CF0DC04111F7CF232FF5CF2F3FCF
:1028800039F0FC01E20FF11D27FDFA9562830895EE
:102890000895CF9384E090E00E946F22C82F81E2D8
:1028A00090E00E946F222C2F30E0A901582BCA0122
:1028B000CF9108956FEE7EEF80E090E00E94A1221C
:1028C00060E082E090E00E94832260E083E090E09C
:1028D0000E9483221092DF021092E0021092E10225
:1028E0001092E20260E084E090E00E94832260E0C7
:1028F00081E290E00E94832260E085E090E00E9407
:10290000832260E086E090E00E9483226FEF87E000
:1029100090E00E94832240E050E0BA0188E090E01D
:102920000E94952260E08DE090E00E94832240E0CA
:1029300050E0BA0188E190E00E94952260E087E1D2
:1029400090E00E94832240E050E0BA018CE190E0E8
:102950000E94952260E080E290E00E948322109223
:102960001F0310922003109221031092220384E08F
:10297000806180931F0340911F0350912003609159
:102980002103709122038FE090E00E94952240E0A5
:1029900050E0BA0183E190E00C9495228091DE0230
:1029A00081111092DE0208959091DC028091DD0287
:1029B000892B2091DB02982F922B909347028091D4
:1029C000DE028823D9F0892B809347028091090188
:1029D000882331F08091310387FF02C08EE101C06E
:1029E00086E0E9E4F2E090E0815028F02191222392
:1029F000D9F39F5FF9CF91110E94CE14E091330378
:102A0000F09134033097A9F080910901882359F09F
:102A10008091310387FF07C080914702809348026D
:102A200085E0809347020280F381E02D87E492E005
:102A300009940895BF92CF92DF92EF92FF920F9385
:102A40001F93CF93DF938C01C090DF02D090E00200
:102A5000E090E102F090E2028091D6029091D702DC
:102A6000A091D802B091D902C82AD92AEA2AFB2A11
:102A7000CFE1D0E0D701C6010C2E04C0B695A795D2
:102A8000979587950A94D2F780FF07C0BC2EB801AE
:102A90008C2F0E94A60C019719F4219758F7B12C9E
:102AA0008B2DDF91CF911F910F91FF90EF90DF90D1
:102AB000CF90BF900895CF93DF93EC010E941A1539
:102AC000BE010E94A60CDF91CF910895292F220FFD
:102AD000920F990F890F682F669566956695982FC6
:102AE000977085E0689FB001112440E050E080E0DD
:102AF000FA01E60FF71FE156FD4F208130E0092E65
:102B000002C0369527950A94E2F721703327042EE8
:102B100001C0220F0A94EAF7822B4F5F5F4F4530C6
:102B2000510531F70895292F220F920F990F890F20
:102B3000A82FA695A695A695877051E001C0550FC0
:102B40008A95EAF785E0A89FD001112420E030E0C3
:102B500070E0F901EA0FFB1FE156FD4F4081CB0108
:102B6000022E02C0969587950A94E2F78170992704
:102B7000819584278523842780832F5F3F4F2530CD
:102B8000310539F708950E94AC0E6093D602709318
:102B9000D7028093D8029093D9020C945F1D0F93B3
:102BA0001F9341E050E060E070E004C0440F551F07
:102BB000661F771F8A95D2F740955095609570955E
:102BC0008091D6029091D702A091D802B091D902FB
:102BD0008A019B01082319232A233B23C901B80139
:102BE0001F910F910C94C3152091DA0280958223D6
:102BF0008093DA02982F977079F430E0482F082EEE
:102C0000000C550B2417350739F08595859585956A
:102C10000E94CF151092DA0208950F931F9341E09E
:102C200050E060E070E004C0440F551F661F771F3E
:102C30008A95D2F78091D6029091D702A091D802BE
:102C4000B091D9028A019B01082B192B2A2B3B2B0F
:102C5000C901B8011F910F910C94C3156093DF0255
:102C60007093E0028093E1029093E2020C945F1D66
:102C700080919E0290916D02891719F08F5F877085
:102C8000FBCF0895CF92DF92FF920F931F93CF93C4
:102C9000DF931F92CDB7DEB7F82E8B0199830E9488
:102CA000961E998181111CC0CF2CD92E01151105BA
:102CB000B1F08091E80085FD0AC08091E8008E7730
:102CC0008093E8000E94961E882381F309C0F601D4
:102CD00081916F018093F10001501109E7CF80E0ED
:102CE0000F90DF91CF911F910F91FF90DF90CF90C8
:102CF00008951F93CF93DF93CDB7DEB7AA970FB692
:102D0000F894DEBF0FBECDBFEFE0F3E088E08E0F9A
:102D10009091F10091938E13FBCF8091100383303B
:102D200009F460C030F4813071F0823009F49AC047
:102D3000B1C08A3009F486C08B3009F46BC0893089
:102D400009F0A8C020C080910F03813A09F0A2C009
:102D50008091E800877F8093E80080911303909131
:102D60001403892B21F460E28BEE92E003C060E053
:102D700080E090E070E00E941C1F8091E8008B775B
:102D80008093E80087C080910F03813209F082C0F0
:102D90008091130390911403029708F07BC08091F7
:102DA000E800877F8093E8008091E80082FD05C0FD
:102DB00080910D038111F8CF6DC02091F3008091B7
:102DC000F20090E0922B029729F48091F1008B7F22
:102DD000813021F48091F1008093EA028091E80033
:102DE0008B7754C080910F03813A09F053C08091D2
:102DF000130390911403892B09F04CC08091E800D3
:102E0000877F8093E8008091E80080FFFCCF80916D
:102E1000090137C080910F038132E1F580911303DE
:102E200090911403892BB1F58091E800877F8093FE
:102E3000E8000E94C81E80911103809309010E943E
:102E40007A1D28C080910F03813221F58091E8001E
:102E5000877F8093E8000E94C81E809112038093B0
:102E6000E90218C080910F03813AA1F48091E80033
:102E7000877F8093E8008091E80080FFFCCF8091FD
:102E8000E9028093F1008091E8008E778093E8005A
:102E90000E94C81E8091E80083FFD6C180910F0375
:102EA00090911003492F50E04A30510508F0CCC1F1
:102EB000FA01E059FF4F0C94DF22803821F082386C
:102EC00009F0C2C108C080910B0390910C039923B3
:102ED00089F082600FC0809113038F70873008F0F3
:102EE000B3C18093E9008091EB0085FB882780F9CE
:102EF0001092E9009091E800977F9093E80080930A
:102F0000F1001092F10074C1282F2D7F09F09CC1AF
:102F1000882319F0823061F097C1809111038130CC
:102F200009F092C1933009F080E080930C032EC029
:102F30008091110381112AC0809113038F702FEFAC
:102F4000280F263008F080C18093E9002091EB0023
:102F500020FF1CC0933021F48091EB00806214C0EC
:102F60009091EB0090619093EB0021E030E0A9019B
:102F700002C0440F551F8A95E2F74093EA00109271
:102F8000EA008091EB0088608093EB001092E900EA
:102F90008091E800877F2FC1811156C110911103E4
:102FA0001F778091E3008078812B8093E3008091EC
:102FB000E800877F8093E8000E94C81E8091E800A7
:102FC00080FFFCCF8091E30080688093E3001111C3
:102FD00002C082E001C083E080930D0335C18058B8
:102FE000823008F031C180911103909112038C3D21
:102FF00053E0950779F583E08A838AE289834FB7A6
:10300000F894DE01139620E03EE051E2E32FF0E079
:1030100050935700E49120FF03C0E295EF703F5FAB
:10302000EF708E2F90E0EA3010F0C79601C0C09686
:103030008D939D932F5F243149F74FBF8091E80016
:10304000877F8093E8006AE270E0CE0101960E94DB
:103050001C1FBDC04091130350911403292F332727
:1030600023303105B9F06CF42130310509F4FBC08F
:103070002230310509F0E8C08BE390E0E0E5F5E0AF
:1030800054C02132310509F433C02232310509F42C
:103090003CC0DAC0992781309105D1F05CF4892BCE
:1030A00009F0D2C0E5ECF5E0E4918E2F90E0E5EC7C
:1030B000F5E038C08230910599F0039709F0C4C05B
:1030C000EDE9F5E0E4918E2F90E0EDE9F5E02AC01E
:1030D000EBEBF5E0E4918E2F90E0EBEBF5E022C016
:1030E000E3EAF5E0E4918E2F90E0E3EAF5E01AC020
:1030F0004115510509F4BCC04130510509F0A4C087
:1031000089E090E0EBE7F5E010C04115510509F4C6
:10311000B4C04130510509F097C080EC90E0E0E583
:10312000F4E003C0009709F48FC02091E800277FE6
:103130002093E800209115033091160328173907D2
:1031400008F4C90140E0009789F120910D03222382
:1031500009F43DC02530D9F12091E80023FD37C0A6
:103160002091E80022FD2FC02091E80020FFEBCF46
:103170004091F3002091F20030E0342B009759F099
:103180002830310540F444914093F1003196019785
:103190002F5F3F4FF3CF41E02830310509F040E089
:1031A0002091E8002E772093E800CDCF4111CDCFBC
:1031B0000AC080910D03882351F0853041F0809141
:1031C000E80083FD04C08091E80082FFF2CF809187
:1031D000E8008B778093E80037C08038A9F58091AC
:1031E000E800877F8093E80080910E038093F100D0
:1031F0008091E8008E778093E8000E94C81E24C06A
:10320000811122C0109111031230F0F48091E80076
:10321000877F8093E80010930E030E94C81E11114F
:1032200006C08091E30087FD02C081E001C084E018
:1032300080930D0342E061EC81E00E94E71E42E2D0
:1032400061EC82E00E94E71E8091E80083FF1AC0D3
:103250008091E800877F8093E8008091EB00806296
:103260008093EB000FC082E190E0EBE8F5E05DCFEA
:1032700089E090E0E2E6F5E058CF80E490E0E0E11C
:10328000F5E053CFAA960FB6F894DEBF0FBECDBFC0
:10329000DF91CF911F9108951F920F920FB60F9259
:1032A00011242F933F934F935F936F937F938F934B
:1032B0009F93AF93BF93CF93DF93EF93FF93C0910F
:1032C000E900CF708091EC00D82FD17080FDD0E85C
:1032D0001092E9008091F000877F8093F00078944D
:1032E0000E9479161092E9008091F0008860809326
:1032F000F000CD2BCF70C093E900FF91EF91DF91EB
:10330000CF91BF91AF919F918F917F916F915F917D
:103310004F913F912F910F900FBE0F901F901895D6
:10332000E8EDF0E080818E7F80831092E2001092C1
:10333000DA001092E100A0EEB0E08C9181608C93F5
:1033400080818F77808319BCA7EDB0E08C918E7F50
:103350008C9380818F7E80831092E8020895CF92B3
:10336000DF92EF92FF920F931F93CF93DF93C8EDFD
:10337000D0E088818F7E8883E7EDF0E080818160F6
:10338000808384E082BF81E08093E80288818E7F21
:10339000888302EE10E0F80110821092DA0081EECC
:1033A000C82ED12CF601108288818F77888388817E
:1033B0008068888388818F7D888319BC10920D0373
:1033C00010920E0310920C0310920B0390EEE92E54
:1033D000F12CF70180818B7F8083888181608883D5
:1033E00042E060E080E00E94E71EF60180818E7F6F
:1033F0008083F80180818160808380818860808300
:10340000F70180818E7F8083888180618883DF914E
:10341000CF911F910F91FF90EF90DF90CF90089583
:103420001F920F920FB60F9211242F933F934F9339
:103430005F936F937F938F939F93AF93BF93EF931C
:10344000FF938091E10082FF09C08091E20082FF3A
:1034500005C08091E1008B7F8093E1008091DA00CC
:1034600080FF2AC08091D80080FF26C08091DA00BA
:103470008E7F8093DA008091D90080FF18C080E1B0
:1034800089BD82E189BD09B400FEFDCF81E0809352
:103490000D038091E80281110FC00E9490190E94D3
:1034A000AF198091E20084608093E20005C019BCEE
:1034B00010920D031092E8028091E10080FF17C086
:1034C0008091E20080FF13C08091E2008E7F8093A4
:1034D000E2008091E20080618093E2008091D80058
:1034E00080628093D80019BC85E080930D038091A1
:1034F000E10084FF32C08091E20084FF2EC080E1B1
:1035000089BD82E189BD09B400FEFDCF8091D8005C
:103510008F7D8093D8008091E1008F7E8093E100C1
:103520008091E2008F7E8093E2008091E2008160D2
:103530008093E20080910E03882311F084E007C09D
:103540008091E30087FD02C081E001C083E08093A9
:103550000D030E947A1D0E94940C8091E10083FF6C
:1035600027C08091E20083FF23C08091E100877F24
:103570008093E10082E080930D0310920E0380910E
:10358000E1008E7F8093E1008091E2008E7F809346
:10359000E2008091E20080618093E20042E060E01E
:1035A00080E00E94E71E8091F00088608093F00028
:1035B000FF91EF91BF91AF919F918F917F916F910B
:1035C0005F914F913F912F910F900FBE0F901F90E1
:1035D000189580916C0282958F7009F054C080918B
:1035E0006902882309F44FC080919E02A0916D0268
:1035F000609167027091680240916A0250916B027B
:10360000B6E08A1709F43FC090E041155105C1F1B9
:103610007F3F11F46F3FA1F1B89FF001B99FF00D0A
:103620001124E259FD4F218172132AC020816213B7
:1036300027C02281211124C023813481241735071A
:1036400010F421503109241B350B283C3105C0F4FE
:1036500020916C022F70206120936C0226E0289F3D
:10366000F001299FF00D1124ED58FD4F80818F70DE
:103670008061808387E692E00E9404030C943816F0
:1036800001968770BECF08950E945B15292F2F7079
:1036900092959F70E92FF0E03297EE30F105B8F483
:1036A000E658FF4F0C94DF22803F99F018F4883ED3
:1036B00070F40FC0843F59F40CC0883E50F0813F35
:1036C00031F407C0822F869586958695089580E00F
:1036D000089581E00895882341F080959091DC025F
:1036E00089238093DC020C94D4140895882339F044
:1036F0009091DC02892B8093DC020C94D414089501
:10370000882341F080959091DD0289238093DD022A
:103710000C94D4140895882339F09091DD02892BFC
:103720008093DD020C94D4140895BF92CF92DF925F
:10373000EF92FF920F931F93CF93DF93CDB7DEB736
:1037400061970FB6F894DEBF0FBECDBF8C0185E048
:10375000F801DE011D9601900D928A95E1F7D801DE
:103760003C9111962C9111971296EC90129713960A
:10377000CD90DC901497509167026091680280911F
:103780006A0290916B02009709F44FC16F3F19F4E0
:103790005F3F09F44AC1B0906902BB2009F4ECC054
:1037A00040916C02C816D90628F0F601E81BF90B07
:1037B000CF0104C0809590958C0D9D1DFF24F3943E
:1037C000883C910548F0F12C407F09F09FC087E6C6
:1037D00092E00E94040321C1842F807F09F044C03D
:1037E000621312C0531310C0E1100EC04F7040613D
:1037F00040936C0287E692E00E94040380916C0281
:10380000D80115968C932EC0CD2819F12F3F11F4B5
:103810003F3FF9F0FE2CE1101CC080919E024091C8
:103820006D0256E0841709F458C090E0589FF001EB
:10383000599FF00D1124E259FD4F6181261306C0F6
:103840006081361303C06281611103C001968770E5
:10385000E9CFFE2CEE2009F421C180916C02816039
:1038600080936C02F12C1AC162130AC0531308C072
:10387000E11006C080916C02D80115968C93B0C0FF
:103880003D872E878D859E850E94441B8823D1F11C
:10389000EE20C1F120916C02822F82958F7090E012
:1038A000029774F0809167029091680298878F83E5
:1038B0001986DB86CA862C87CE0107960E940403F0
:1038C00086E0F801A7E6B2E001900D928A95E1F753
:1038D0000E94E91AFF24F394E1C03D872E878D856D
:1038E0009E850E945B15292F22952F7030E0223093
:1038F00031050CF0C7C09F7009F0C1C0805E8830F0
:1039000008F4CCC0C8010E940403E4CF621314C0C1
:10391000531312C0E11010C080916C02F80185832E
:10392000C8010E94040386E0E7E6F2E0DF011D9291
:103930008A95E9F7FB2CB2C03D872E878D859E8541
:103940000E94441B8823F1F2EE20E1F220916C02E8
:10395000822F82958F7090E002970CF4B1CF809106
:103960006702909168029A8389831B82DD82CC82F0
:103970002E83CE010196A2CFC816D90638F0C81AF8
:10398000D90AB8ECCB16D10450F007C080959095B9
:103990008C0D9D1D883C910510F0F12C3EC0FE2C35
:1039A000EE2009F4AFCF621327C0531325C0209136
:1039B0006C0220FD18C0822F82958F70482F50E036
:1039C0004115510581F0F80125834F30510541F033
:1039D0008F5F982F9295907F822F8F70892B858390
:1039E000C8010E94040386E0F801A7E6B2E0019056
:1039F0000D928A95E1F752C03D872E878D859E8571
:103A00000E94441B81115CCF80916C028160809385
:103A10006C02C8010E94040341C0E7E6F2E086E0C0
:103A2000DF011D928A95E9F739C0EE2009F46ACFCB
:103A30003D872E878D859E850E94441BF82E882306
:103A400009F460CF86E0F801A7E6B2E001900D929C
:103A50008A95E1F780916702909168020E945B1558
:103A600092959F70963041F48091180391E08927D8
:103A700080931803909317030E94E91A0FC08111D5
:103A80003DCF0CC0243031050CF03CCF9F7009F4C1
:103A900035CFF8019581907F09F030CF8F2D619659
:103AA0000FB6F894DEBF0FBECDBFDF91CF911F914F
:103AB0000F91FF90EF90DF90CF90BF9008951092FC
:103AC000DC021092DB020E94D414E4E4F3E086E00E
:103AD000DF011D928A95E9F710924A031092E702DE
:103AE0000E94A71380E090E00E947E0C80E090E0AE
:103AF0000C94680C1092DD0280910901882331F04A
:103B00008091310387FF02C08EE101C086E0E9E4C5
:103B1000F2E0DF011D928A95E9F70C945F1D88237E
:103B200009F463C0823869F40E94940C81FF5DC07F
:103B300069E387E492E00E9411140E94D41469E3BF
:103B40000EC0833891F40E94940C80FF4EC063E550
:103B500087E492E00E9411140E94D41463E587E484
:103B600092E00E94E6130C94D414843869F40E9405
:103B7000940C82FF3AC067E487E492E00E9411143B
:103B80000E94D41467E4EBCF9CEF980F913A10F4A5
:103B9000682FE5CF90E2980F983088F4877021E085
:103BA00030E0A90102C0440F551F8A95E2F7CA010F
:103BB00080959091DD0289238093DD02D4CF9BE52F
:103BC000980F933020F480E090E00C947E0C98E500
:103BD000980F973120F480E090E00C94680C803FBF
:103BE00020F00E9419120C94A7130895882309F459
:103BF00089C08238B1F40E94940C81FD83C069E3CE
:103C000087E492E00E9411140E94D4142FEF41EE39
:103C100054E0215040405040E1F700C0000069E30B
:103C200017C08338D9F40E94940C80FD6BC063E503
:103C300087E492E00E9411140E94D4148FEF91EE59
:103C400024E0815090402040E1F700C0000063E58F
:103C500087E492E00E94E6130C94D4148438B1F403
:103C60000E94940C82FD4EC067E487E492E00E94BB
:103C700011140E94D4144FEF51EE84E04150504093
:103C80008040E1F700C0000067E4E2CF9CEF980FAE
:103C9000913A30F4682F87E492E00E941114DCCF4F
:103CA00090E2980F983080F4877021E030E0A9010D
:103CB00002C0440F551F8A95E2F7CA019091DD02B8
:103CC000892B8093DD02C8CFEBE5E80FE33038F4B1
:103CD000F0E0EC50FE4F808190E00C947E0CE8E523
:103CE000E80FE73148F4F0E0EE0FFF1FE950FE4F18
:103CF000808191810C94680C803F20F00E94E31237
:103D00000C94A7130895CF93C82F0E94F61DC933B2
:103D100049F42FEF87EE93E0215080409040E1F787
:103D200000C000008C2FCF910C948F1D2091E400D7
:103D30003091E50095E64091EC00842F817040FFC2
:103D400022C08091E80080FD1CC080910D03882373
:103D500091F0853091F08091EB0085FD10C040918D
:103D6000E4005091E5004217530729F39A0191505E
:103D700011F784E0089582E0089583E0089581E0DA
:103D8000089580E008954091E80042FFDECF089555
:103D900080910F0387FF11C08091E80082FD05C06C
:103DA00080910D038111F8CF11C08091E8008B77CD
:103DB0000BC080910D03882349F08091E80080FFBB
:103DC000F8CF8091E8008E778093E8000895982FCF
:103DD000973058F59093E900981739F07091EC00FE
:103DE0002091ED005091F00003C0242F762F50E079
:103DF00021FF19C03091EB003E7F3093EB003091F2
:103E0000ED003D7F3093ED003091EB003160309359
:103E1000EB007093EC002093ED005093F0002091A4
:103E2000EE0027FF07C09F5FD3CF8F708093E9001C
:103E300081E0089580E008952091150330911603E4
:103E40002617370748F06115710539F42091E8000D
:103E50002E772093E80001C0B90140E0611571059B
:103E6000A9F120910D03222309F443C0253009F460
:103E700042C02091E80023FD40C02091E80022FDCF
:103E800032C02091E80020FFE9CF4091F30020915B
:103E9000F20030E0342BFC01CF016115710559F0BF
:103EA0002830310540F481918093F100615071090F
:103EB0002F5F3F4FF1CF41E02830310509F040E05E
:103EC0002091E8002E772093E800C8CF4111C9CF98
:103ED0000AC080910D03882361F0853061F08091E4
:103EE000E80083FD0AC08091E80082FFF2CF80E005
:103EF000089582E0089583E0089581E00895809117
:103F00000D03843011F081E0089582E00895CF938D
:103F1000DF93CDB7DEB72A970FB6F894DEBF0FBE9A
:103F2000CDBF84B7877F84BF0FB6F894A8958091E2
:103F30006000886180936000109260000FBE90E086
:103F400080E80FB6F89480936100909361000FBEF3
:103F500085B7806885BF85B7806885BF0E94901946
:103F60000E94AF198091E20084608093E20078940F
:103F700080910D038823A1F01091E9001F709091AA
:103F8000EC00892F817090FD80E8182B1092E900D9
:103F90008091E80083FD0E9479161F701093E9005C
:103FA00082E084BD93E095BD9AEF97BD80936E004B
:103FB0000E94230F90E090930B0180930A010E94CE
:103FC0000A100E941910A3E2B3E0E6E3F3E01EE05A
:103FD000F12EFE0E11921D92FE12FCCF8EE090E0AB
:103FE0000E94E5228093190390931A03FC010E9618
:103FF0002BEF2193E817F907E1F780E090E00E94AA
:104000007D228F3E9E4F11F00E945A148CE090E06A
:104010000E946F2290E0A0E0B0E080931B03909399
:104020001C03A0931D03B0931E0389EA80938000B4
:1040300089E08093810024982C983F988AB18F7CE6
:104040008AB96E98479A8BB180638BB9769A8FE064
:1040500090E00E94772260931F0370932003809367
:1040600021039093220367703FEF639FB0011124F7
:104070007595679575956795772770938900609317
:10408000880070938B0060938A0070938D0060931A
:104090008C000E949A0F80E090E00E947D228F3E6B
:1040A0009E4F11F00E945A1482E090E00E946F220D
:1040B00080934E030E9449149093320380933103FE
:1040C00083E090E00E946F22682F70E080E090E033
:1040D0000E942E168CE091E090933403809333037A
:1040E000EE24E394BB24BA9440E1A42E52E1952E31
:1040F00068E1C62ED12C70E4872E80910D038530A7
:1041000009F043C080910D03843009F1109235030A
:104110000FB6F894A895C09260000FBE8092600020
:1041200083B7817F846083BF83B7816083BF7894C6
:10413000889583B78E7F83BF0FB6F894A89580913A
:104140006000886180936000109260000FBE8091D3
:104150000C03882391F20E94230F90E090930B01AF
:1041600080930A010E940A100E941910E6E3F3E00E
:104170001192FE12FDCF0E948D10E6E3F3E08191D3
:104180008111DFC0FE12FBCFB8CF0E948D10EFE48B
:10419000F3E0A6E3B3E000E010E0302F9D91219121
:1041A000292721F180E077247394472D4223D1F011
:1041B00089833A83972181E009F480E08B830E9410
:1041C0009B138160782F9D838C8349815A816B81F9
:1041D0008D810E94940BF801E15BFC4F8081782671
:1041E000708218C08F5F770C8630F9F60F5F1F4F13
:1041F0000E30110591F6BE82BF8218860E949B1375
:104200008160782F9A8789874E815F8168858A854A
:104210000E94940B80914B0390914C030E94711368
:104220009C0190914A03992321F02431310508F42F
:104230007CC0809146031091470381110BC011117E
:1042400094C020914803211190C02091490321116D
:104250008CC06BC09F3F19F09F5F90934A03181664
:1042600024F40E94C012809346038091460387FF86
:1042700005C00E94C012819580934603111624F454
:104280000E94C012809347038091470387FF05C0B7
:104290000E94C012819580934703309146033323D7
:1042A00001F1209147032223E1F045EB3403C001E3
:1042B0001124892F990F990B009719F080934603C9
:1042C00002C0E092460335EB2303C0011124892F7D
:1042D000990F990B009719F08093470302C0E09261
:1042E000470380914803181624F40E949E1280937D
:1042F00048038091480387FF05C00E949E12819564
:104300008093480380914903181624F40E949E125A
:10431000809349038091490387FF05C00E949E1244
:104320008195809349030E94A71310914D030E9429
:10433000940C181709F4E1CE0E94940C80934D035D
:10434000DCCEA9BC99BC09B400FEFDCF8091D80099
:104350008F7D8093D8008091E00082608093E000A0
:104360008091E00081FDFCCFC8CE9F3F09F074CF63
:104370007CCF1092B9008CE08093B8000895EF9242
:10438000FF920F931F93CF93DF93182FEB0110929F
:10439000BC0084EA8093BC000E949B137C01909136
:1043A000BC0097FD0EC0CF3F8FEFD807C1F30E942E
:1043B0009B138E199F098C179D0788F38EEF9FEF33
:1043C0002EC09091B900987F983041F09091B9003B
:1043D000987F903119F08FEF9FEF21C01093BB00B1
:1043E00084E88093BC000E949B138C019091BC00D8
:1043F00097FD0CC0CF3F8FEFD807C1F30E949B13EE
:10440000801B910B8C179D0788F3D8CF8091B90042
:10441000887F883111F08034F1F680E090E0DF9100
:10442000CF911F910F91FF90EF9008950F931F93DD
:10443000CF93DF93EB018093BB0084E88093BC00B3
:104440000E949B138C019091BC0097FD0EC0CF3F42
:104450008FEFD807C1F30E949B13801B910B8C1721
:104460009D0788F38EEF9FEF0CC02091B900287F45
:1044700081E090E0283211F480E090E09195819500
:104480009109DF91CF911F910F9108950F931F9381
:10449000CF93DF93EC0184E88093BC000E949B13D0
:1044A0008C019091BC0097FD0EC0CF3F8FEFD807D5
:1044B000C1F30E949B13801B910B8C179D0788F3FF
:1044C0008EEF9FEF03C08091BB0090E0DF91CF9112
:1044D0001F910F91089584E98093BC000895F99984
:1044E000FECF92BD81BDF89A992780B50895A6E1C7
:1044F000B0E044E050E00C94A922A8E1B0E042E032
:1045000050E00C94A922262FF999FECF92BD81BDCF
:10451000F89A019700B4021639F01FBA20BD0FB601
:10452000F894FA9AF99A0FBE08950396272F0E94DD
:1045300084220E948322252F0E948422242F0C94FF
:1045400084220196272F0E9484220C948322DC016E
:10455000CB01FC01F999FECF06C0F2BDE1BDF89A8E
:10456000319600B40D9241505040B8F70895AA1BFF
:10457000BB1B51E107C0AA1FBB1FA617B70710F04E
:10458000A61BB70B881F991F5A95A9F78095909580
:10459000BC01CD01089597FB072E16F4009407D0B7
:1045A00077FD09D00E94B72207FC05D03EF4909514
:1045B00081959F4F0895709561957F4F0895EE0FF7
:1045C000FF1F0590F491E02D0994CF93DF93823083
:1045D000910510F482E090E0E0915F03F0916003B8
:1045E00020E030E0C0E0D0E0309711F1408151810F
:1045F00048175907C0F04817590761F48281938121
:10460000209719F09B838A832BC09093600380933B
:104610005F0326C02115310519F04217530718F41E
:104620009A01BE01DF01EF010280F381E02DDCCFB2
:104630002115310509F1281B390B2430310590F47F
:1046400012968D919C9113976115710521F0FB01D4
:104650009383828304C09093600380935F03FD0182
:10466000329644C0FD01E20FF31F819391932250D3
:1046700031092D933C933AC020915D0330915E0344
:10468000232B41F4209102013091030130935E030A
:1046900020935D0320910001309101012115310526
:1046A00041F42DB73EB74091040150910501241B00
:1046B000350BE0915D03F0915E03E217F307A0F480
:1046C0002E1B3F0B2817390778F0AC014E5F5F4F68
:1046D0002417350748F04E0F5F1F50935E03409339
:1046E0005D038193919302C0E0E0F0E0CF01DF91A0
:1046F000CF9108950F931F93CF93DF93009709F401
:104700008CC0FC0132971382128200915F031091DA
:1047100060030115110581F420813181820F931FFF
:1047200020915D0330915E032817390779F5F093E6
:104730005E03E0935D0371C0D80140E050E0AE1726
:10474000BF0750F412962D913C911397AD0121159E
:10475000310509F1D901F3CF9D01DA0133832283B9
:1047600060817181860F971F8217930769F4EC01AE
:1047700028813981260F371F2E5F3F4F31832083D9
:104780008A819B8193838283452B29F4F093600374
:10479000E0935F0342C01396FC93EE931297ED01F2
:1047A000499159919E01240F351FE217F30771F4C7
:1047B00080819181840F951F029611969C938E9310
:1047C0008281938113969C938E931297E0E0F0E0A0
:1047D000D80112968D919C911397009719F0F801CA
:1047E0008C01F6CF8D919C9198012E5F3F4F820FE7
:1047F000931F20915D0330915E032817390769F4F8
:10480000309729F41092600310925F0302C0138264
:10481000128210935E0300935D03DF91CF911F918D
:104820000F910895AEE0B0E0E8E1F4E20C94CE26FA
:104830000D891E898F89988D26E02C831A83098320
:1048400097FF02C080E090E801979E838D83AE01C0
:10485000455E5F4F698D7A8DCE0101960E9442249C
:104860004D815E8157FD0AC02F813885421753075D
:104870000CF49A01F801E20FF31F10822E96E4E087
:104880000C94EA26ACE0B0E0E8E4F4E20C94C02634
:104890007C016B018A01FC0117821682838181FFF2
:1048A000BDC1CE0101964C01F7019381F60193FD44
:1048B000859193FF81916F01882309F4ABC1853203
:1048C00039F493FD859193FF81916F01853229F42D
:1048D000B70190E00E942A26E7CF512C312C20E02E
:1048E0002032A0F48B3269F030F4803259F08332F8
:1048F00069F420612CC08D3239F0803339F42160A5
:1049000026C02260246023C0286021C027FD27C064
:1049100030ED380F3A3078F426FF06C0FAE05F9E9B
:10492000300D1124532E13C08AE0389E300D11240F
:10493000332E20620CC08E3221F426FD6BC1206420
:1049400006C08C3611F4206802C0883641F4F601A6
:1049500093FD859193FF81916F018111C1CF982FB4
:104960009F7D9554933028F40C5F1F4FFFE3F9832C
:104970000DC0833631F0833771F0833509F05BC0A9
:1049800022C0F801808189830E5F1F4F4424439425
:10499000512C540115C03801F2E06F0E711CF80162
:1049A000A080B18026FF03C0652D70E002C06FEFCC
:1049B0007FEFC5012C870E941F262C0183012C85C7
:1049C0002F77222E17C03801F2E06F0E711CF8010C
:1049D000A080B18026FF03C0652D70E002C06FEF9C
:1049E0007FEFC5012C870E9414262C012C8520689E
:1049F000222E830123FC1BC0832D90E0481659060C
:104A0000B0F4B70180E290E00E942A263A94F4CFF5
:104A1000F50127FC859127FE81915F01B70190E0A8
:104A20000E942A2631103A94F1E04F1A510841149D
:104A3000510471F7E5C0843611F0893639F5F80173
:104A400027FF07C060817181828193810C5F1F4FB6
:104A500008C060817181072E000C880B990B0E5FD6
:104A60001F4F2F76722E97FF09C0909580957095F5
:104A700061957F4F8F4F9F4F2068722E2AE030E064
:104A8000A4010E946226A82EA81844C0853729F4E4
:104A90002F7EB22E2AE030E025C0F22FF97FBF2E04
:104AA0008F36C1F018F4883579F0B4C0803719F02A
:104AB000883721F0AFC02F2F2061B22EB4FE0DC079
:104AC0008B2D8460B82E09C024FF0AC09F2F9660EA
:104AD000B92E06C028E030E005C020E130E002C079
:104AE00020E132E0F801B7FE07C060817181828168
:104AF00093810C5F1F4F06C06081718180E090E060
:104B00000E5F1F4FA4010E946226A82EA818FB2D3D
:104B1000FF777F2E76FE0BC0372D3E7FA51450F415
:104B200074FE0AC072FC08C0372D3E7E05C0BA2C48
:104B3000372D03C0BA2C01C0B52C34FF0DC0FE01C7
:104B4000EA0DF11D8081803311F4397E09C032FFF6
:104B500006C0B394B39404C0832F867809F0B3944D
:104B600033FD13C030FF06C05A2CB31418F4530C95
:104B70005B18B32CB31468F4B70180E290E03C8773
:104B80000E942A26B3943C85F5CFB31410F43B1849
:104B900001C0312C34FF12C0B70180E390E03C87A4
:104BA0000E942A263C8532FF17C031FD03C088E7EA
:104BB00090E002C088E590E0B7010CC0832F8678B2
:104BC00059F031FF02C08BE201C080E237FD8DE277
:104BD000B70190E00E942A26A51438F4B70180E3BB
:104BE00090E00E942A265A94F7CFAA94F401EA0D85
:104BF000F11D8081B70190E00E942A26A110F5CF17
:104C0000332009F451CEB70180E290E00E942A26B9
:104C10003A94F6CFF7018681978102C08FEF9FEF1C
:104C20002C96E2E10C94DC26FC010590615070406A
:104C30000110D8F7809590958E0F9F1F0895FC0165
:104C40006150704001900110D8F7809590958E0FBB
:104C50009F1F08950F931F93CF93DF93FB01238131
:104C600021FD03C08FEF9FEF28C022FF16C04681B1
:104C70005781248135814217530744F4A081B181C3
:104C80009D012F5F3F4F318320838C932681378195
:104C90002F5F3F4F3783268310C0EB01092F182F5A
:104CA0000084F185E02D0995892BE1F68E819F81A5
:104CB00001969F838E83812F902FDF91CF911F913B
:104CC0000F910895FA01AA27283051F1203181F17E
:104CD000E8946F936E7F6E5F7F4F8F4F9F4FAF4F04
:104CE000B1E03ED0B4E03CD0670F781F891F9A1F17
:104CF000A11D680F791F8A1F911DA11D6A0F711DCB
:104D0000811D911DA11D20D009F468943F912AE0D6
:104D1000269F11243019305D3193DEF6CF010895BE
:104D2000462F4770405D4193B3E00FD0C9F7F6CFEF
:104D3000462F4F70405D4A3318F0495D31FD4052B7
:104D4000419302D0A9F7EACFB4E0A695979587954D
:104D500077956795BA95C9F700976105710508952C
:104D60009B01AC010A2E06945795479537952795D8
:104D7000BA95C9F7620F731F841F951FA01D089570
:104D80002F923F924F925F926F927F928F929F925B
:104D9000AF92BF92CF92DF92EF92FF920F931F9349
:104DA000CF93DF93CDB7DEB7CA1BDB0B0FB6F894FA
:104DB000DEBF0FBECDBF09942A88398848885F843A
:104DC0006E847D848C849B84AA84B984C884DF80AB
:104DD000EE80FD800C811B81AA81B981CE0FD11D8F
:104DE0000FB6F894DEBF0FBECDBFED010895F89465
:024DF000FFCFF3
:104DF20000006103200001DC000120005911D211E2
:104E0200A711A1118F110A25640A00818283E20091
:104E1200E900EA00B500B600B700CD008301CC007E
:104E22008A01920194012102230224022502260210
:104E320027022A02B300B4006F007000000D010DBA
:104E4200020D030D040D050D000C010C020C030CE8
:104E5200040C050C000B010B020B030B040B050BDE
:104E6200000A010A020A030A040A050A00090109E2
:104E720002090309040905090008010802080308D8
:104E820004080508000701070207030704070507CE
:104E920000060106020603060406050600050105D2
:104EA20002050305040505050004010402040304C8
:104EB20004040504000301030203030304030503BE
:104EC20000020102020203020402050200010101C2
:104ED20002010301040105010000010002000300B8
:104EE20004000500818283E200E900EA00B500B611
:104EF20000B700CD008301CC008A01920194012108
:104F020002230224022502260227022A02B300B447
:064F1200006F00700000BA
:00000001FF
